{
  "_format": "hh-sol-artifact-1",
  "contractName": "UserManager",
  "sourceName": "contracts/UserManager.sol",
  "abi": [
    {
      "inputs": [],
      "stateMutability": "nonpayable",
      "type": "constructor"
    },
    {
      "inputs": [
        {
          "internalType": "address",
          "name": "_user",
          "type": "address"
        },
        {
          "components": [
            {
              "internalType": "uint256",
              "name": "id",
              "type": "uint256"
            },
            {
              "internalType": "string",
              "name": "name",
              "type": "string"
            },
            {
              "internalType": "uint256",
              "name": "price",
              "type": "uint256"
            },
            {
              "internalType": "string",
              "name": "baseImage",
              "type": "string"
            }
          ],
          "internalType": "struct UserFundedProperty",
          "name": "_property",
          "type": "tuple"
        },
        {
          "internalType": "uint256",
          "name": "_amount",
          "type": "uint256"
        }
      ],
      "name": "addNewUserFunding",
      "outputs": [],
      "stateMutability": "nonpayable",
      "type": "function"
    },
    {
      "inputs": [
        {
          "internalType": "address",
          "name": "_user",
          "type": "address"
        }
      ],
      "name": "getUser",
      "outputs": [
        {
          "components": [
            {
              "internalType": "string",
              "name": "username",
              "type": "string"
            },
            {
              "components": [
                {
                  "internalType": "uint256",
                  "name": "timestamp",
                  "type": "uint256"
                },
                {
                  "internalType": "uint256",
                  "name": "amount",
                  "type": "uint256"
                },
                {
                  "components": [
                    {
                      "internalType": "uint256",
                      "name": "id",
                      "type": "uint256"
                    },
                    {
                      "internalType": "string",
                      "name": "name",
                      "type": "string"
                    },
                    {
                      "internalType": "uint256",
                      "name": "price",
                      "type": "uint256"
                    },
                    {
                      "internalType": "string",
                      "name": "baseImage",
                      "type": "string"
                    }
                  ],
                  "internalType": "struct UserFundedProperty",
                  "name": "property",
                  "type": "tuple"
                },
                {
                  "internalType": "uint256",
                  "name": "id",
                  "type": "uint256"
                }
              ],
              "internalType": "struct UserFunding[]",
              "name": "fundings",
              "type": "tuple[]"
            },
            {
              "internalType": "uint256",
              "name": "totalFunds",
              "type": "uint256"
            },
            {
              "internalType": "uint256",
              "name": "assetsFunded",
              "type": "uint256"
            },
            {
              "internalType": "string",
              "name": "logoUrl",
              "type": "string"
            }
          ],
          "internalType": "struct User",
          "name": "",
          "type": "tuple"
        }
      ],
      "stateMutability": "view",
      "type": "function"
    },
    {
      "inputs": [
        {
          "internalType": "address",
          "name": "_user",
          "type": "address"
        },
        {
          "internalType": "uint256",
          "name": "_offset",
          "type": "uint256"
        },
        {
          "internalType": "uint256",
          "name": "_limit",
          "type": "uint256"
        }
      ],
      "name": "getUserFundingPaginated",
      "outputs": [
        {
          "components": [
            {
              "internalType": "uint256",
              "name": "timestamp",
              "type": "uint256"
            },
            {
              "internalType": "uint256",
              "name": "amount",
              "type": "uint256"
            },
            {
              "components": [
                {
                  "internalType": "uint256",
                  "name": "id",
                  "type": "uint256"
                },
                {
                  "internalType": "string",
                  "name": "name",
                  "type": "string"
                },
                {
                  "internalType": "uint256",
                  "name": "price",
                  "type": "uint256"
                },
                {
                  "internalType": "string",
                  "name": "baseImage",
                  "type": "string"
                }
              ],
              "internalType": "struct UserFundedProperty",
              "name": "property",
              "type": "tuple"
            },
            {
              "internalType": "uint256",
              "name": "id",
              "type": "uint256"
            }
          ],
          "internalType": "struct UserFunding[]",
          "name": "",
          "type": "tuple[]"
        },
        {
          "internalType": "uint256",
          "name": "",
          "type": "uint256"
        },
        {
          "internalType": "uint256",
          "name": "",
          "type": "uint256"
        }
      ],
      "stateMutability": "view",
      "type": "function"
    },
    {
      "inputs": [
        {
          "internalType": "uint256",
          "name": "_funding",
          "type": "uint256"
        }
      ],
      "name": "mintPropertyNFT",
      "outputs": [],
      "stateMutability": "nonpayable",
      "type": "function"
    },
    {
      "inputs": [
        {
          "internalType": "string",
          "name": "_logoUrl",
          "type": "string"
        }
      ],
      "name": "setUserLogo",
      "outputs": [],
      "stateMutability": "nonpayable",
      "type": "function"
    },
    {
      "inputs": [
        {
          "internalType": "string",
          "name": "_username",
          "type": "string"
        }
      ],
      "name": "setUsername",
      "outputs": [],
      "stateMutability": "nonpayable",
      "type": "function"
    },
    {
      "inputs": [
        {
          "internalType": "address",
          "name": "",
          "type": "address"
        }
      ],
      "name": "users",
      "outputs": [
        {
          "internalType": "string",
          "name": "username",
          "type": "string"
        },
        {
          "internalType": "uint256",
          "name": "totalFunds",
          "type": "uint256"
        },
        {
          "internalType": "uint256",
          "name": "assetsFunded",
          "type": "uint256"
        },
        {
          "internalType": "string",
          "name": "logoUrl",
          "type": "string"
        }
      ],
      "stateMutability": "view",
      "type": "function"
    }
  ],
  "bytecode": "0x6080604052600060025534801561001557600080fd5b5060405161002290610084565b604051809103906000f08015801561003e573d6000803e3d6000fd5b50600160006101000a81548173ffffffffffffffffffffffffffffffffffffffff021916908373ffffffffffffffffffffffffffffffffffffffff160217905550610092565b6135ca8062001e5a83390190565b611db880620000a26000396000f3fe608060405234801561001057600080fd5b506004361061007d5760003560e01c8063a87430ba1161005b578063a87430ba146100ea578063c9dfe23d1461011d578063d56f956114610139578063ed59313a1461016b5761007d565b8063297349341461008257806342e65ead1461009e5780636f77926b146100ba575b600080fd5b61009c60048036038101906100979190610fc6565b610187565b005b6100b860048036038101906100b39190611035565b610386565b005b6100d460048036038101906100cf9190611062565b6104a2565b6040516100e19190611341565b60405180910390f35b61010460048036038101906100ff9190611062565b610801565b60405161011494939291906113bc565b60405180910390f35b61013760048036038101906101329190611474565b610941565b005b610153600480360381019061014e91906114c1565b610996565b6040516101629392919061159a565b60405180910390f35b61018560048036038101906101809190611474565b610e20565b005b60006040518060800160405280428152602001838152602001846101aa906117c2565b81526020016000808773ffffffffffffffffffffffffffffffffffffffff1673ffffffffffffffffffffffffffffffffffffffff1681526020019081526020016000206001018054905081525090506000808573ffffffffffffffffffffffffffffffffffffffff1673ffffffffffffffffffffffffffffffffffffffff16815260200190815260200160002060010181908060018154018082558091505060019003906000526020600020906007020160009091909190915060008201518160000155602082015181600101556040820151816002016000820151816000015560208201518160010190816102a091906119e1565b506040820151816002015560608201518160030190816102c091906119e1565b505050606082015181600601555050816000808673ffffffffffffffffffffffffffffffffffffffff1673ffffffffffffffffffffffffffffffffffffffff16815260200190815260200160002060020160008282546103209190611ae2565b9250508190555060016000808673ffffffffffffffffffffffffffffffffffffffff1673ffffffffffffffffffffffffffffffffffffffff16815260200190815260200160002060030160008282546103799190611ae2565b9250508190555050505050565b60008060003373ffffffffffffffffffffffffffffffffffffffff1673ffffffffffffffffffffffffffffffffffffffff16815260200190815260200160002060010182815481106103db576103da611b16565b5b90600052602060002090600702016002016003019050600160009054906101000a900473ffffffffffffffffffffffffffffffffffffffff1673ffffffffffffffffffffffffffffffffffffffff1663cd279c7c33600254846040518463ffffffff1660e01b815260040161045293929190611bed565b600060405180830381600087803b15801561046c57600080fd5b505af1158015610480573d6000803e3d6000fd5b505050506001600260008282546104979190611ae2565b925050819055505050565b6104aa610e75565b60008060008473ffffffffffffffffffffffffffffffffffffffff1673ffffffffffffffffffffffffffffffffffffffff1681526020019081526020016000206040518060a001604052908160008201805461050590611804565b80601f016020809104026020016040519081016040528092919081815260200182805461053190611804565b801561057e5780601f106105535761010080835404028352916020019161057e565b820191906000526020600020905b81548152906001019060200180831161056157829003601f168201915b5050505050815260200160018201805480602002602001604051908101604052809291908181526020016000905b8282101561074857838290600052602060002090600702016040518060800160405290816000820154815260200160018201548152602001600282016040518060800160405290816000820154815260200160018201805461060d90611804565b80601f016020809104026020016040519081016040528092919081815260200182805461063990611804565b80156106865780601f1061065b57610100808354040283529160200191610686565b820191906000526020600020905b81548152906001019060200180831161066957829003601f168201915b50505050508152602001600282015481526020016003820180546106a990611804565b80601f01602080910402602001604051908101604052809291908181526020018280546106d590611804565b80156107225780601f106106f757610100808354040283529160200191610722565b820191906000526020600020905b81548152906001019060200180831161070557829003601f168201915b5050505050815250508152602001600682015481525050815260200190600101906105ac565b505050508152602001600282015481526020016003820154815260200160048201805461077490611804565b80601f01602080910402602001604051908101604052809291908181526020018280546107a090611804565b80156107ed5780601f106107c2576101008083540402835291602001916107ed565b820191906000526020600020905b8154815290600101906020018083116107d057829003601f168201915b505050505081525050905080915050919050565b600060205280600052604060002060009150905080600001805461082490611804565b80601f016020809104026020016040519081016040528092919081815260200182805461085090611804565b801561089d5780601f106108725761010080835404028352916020019161089d565b820191906000526020600020905b81548152906001019060200180831161088057829003601f168201915b5050505050908060020154908060030154908060040180546108be90611804565b80601f01602080910402602001604051908101604052809291908181526020018280546108ea90611804565b80156109375780601f1061090c57610100808354040283529160200191610937565b820191906000526020600020905b81548152906001019060200180831161091a57829003601f168201915b5050505050905084565b81816000803373ffffffffffffffffffffffffffffffffffffffff1673ffffffffffffffffffffffffffffffffffffffff1681526020019081526020016000206004019182610991929190611c36565b505050565b606060008060008060008873ffffffffffffffffffffffffffffffffffffffff1673ffffffffffffffffffffffffffffffffffffffff1681526020019081526020016000206040518060a00160405290816000820180546109f690611804565b80601f0160208091040260200160405190810160405280929190818152602001828054610a2290611804565b8015610a6f5780601f10610a4457610100808354040283529160200191610a6f565b820191906000526020600020905b815481529060010190602001808311610a5257829003601f168201915b5050505050815260200160018201805480602002602001604051908101604052809291908181526020016000905b82821015610c39578382906000526020600020906007020160405180608001604052908160008201548152602001600182015481526020016002820160405180608001604052908160008201548152602001600182018054610afe90611804565b80601f0160208091040260200160405190810160405280929190818152602001828054610b2a90611804565b8015610b775780601f10610b4c57610100808354040283529160200191610b77565b820191906000526020600020905b815481529060010190602001808311610b5a57829003601f168201915b5050505050815260200160028201548152602001600382018054610b9a90611804565b80601f0160208091040260200160405190810160405280929190818152602001828054610bc690611804565b8015610c135780601f10610be857610100808354040283529160200191610c13565b820191906000526020600020905b815481529060010190602001808311610bf657829003601f168201915b505050505081525050815260200160068201548152505081526020019060010190610a9d565b5050505081526020016002820154815260200160038201548152602001600482018054610c6590611804565b80601f0160208091040260200160405190810160405280929190818152602001828054610c9190611804565b8015610cde5780601f10610cb357610100808354040283529160200191610cde565b820191906000526020600020905b815481529060010190602001808311610cc157829003601f168201915b50505050508152505090506000816020015151905060008603610d0057600195505b8681610d0c9190611d06565b861115610d22578681610d1f9190611d06565b95505b6000861015610d405781602001516000809450945094505050610e17565b60008667ffffffffffffffff811115610d5c57610d5b6115dd565b5b604051908082528060200260200182016040528015610d9557816020015b610d82610ea4565b815260200190600190039081610d7a5790505b50905060005b87811015610dfe578360200151818a610db49190611ae2565b81518110610dc557610dc4611b16565b5b6020026020010151828281518110610de057610ddf611b16565b5b60200260200101819052508080610df690611d3a565b915050610d9b565b50808789610e0c9190611ae2565b839550955095505050505b93509350939050565b81816000803373ffffffffffffffffffffffffffffffffffffffff1673ffffffffffffffffffffffffffffffffffffffff1681526020019081526020016000206000019182610e70929190611c36565b505050565b6040518060a0016040528060608152602001606081526020016000815260200160008152602001606081525090565b60405180608001604052806000815260200160008152602001610ec5610ed2565b8152602001600081525090565b6040518060800160405280600081526020016060815260200160008152602001606081525090565b6000604051905090565b600080fd5b600080fd5b600073ffffffffffffffffffffffffffffffffffffffff82169050919050565b6000610f3982610f0e565b9050919050565b610f4981610f2e565b8114610f5457600080fd5b50565b600081359050610f6681610f40565b92915050565b600080fd5b600060808284031215610f8757610f86610f6c565b5b81905092915050565b6000819050919050565b610fa381610f90565b8114610fae57600080fd5b50565b600081359050610fc081610f9a565b92915050565b600080600060608486031215610fdf57610fde610f04565b5b6000610fed86828701610f57565b935050602084013567ffffffffffffffff81111561100e5761100d610f09565b5b61101a86828701610f71565b925050604061102b86828701610fb1565b9150509250925092565b60006020828403121561104b5761104a610f04565b5b600061105984828501610fb1565b91505092915050565b60006020828403121561107857611077610f04565b5b600061108684828501610f57565b91505092915050565b600081519050919050565b600082825260208201905092915050565b60005b838110156110c95780820151818401526020810190506110ae565b60008484015250505050565b6000601f19601f8301169050919050565b60006110f18261108f565b6110fb818561109a565b935061110b8185602086016110ab565b611114816110d5565b840191505092915050565b600081519050919050565b600082825260208201905092915050565b6000819050602082019050919050565b61115481610f90565b82525050565b6000608083016000830151611172600086018261114b565b506020830151848203602086015261118a82826110e6565b915050604083015161119f604086018261114b565b50606083015184820360608601526111b782826110e6565b9150508091505092915050565b60006080830160008301516111dc600086018261114b565b5060208301516111ef602086018261114b565b5060408301518482036040860152611207828261115a565b915050606083015161121c606086018261114b565b508091505092915050565b600061123383836111c4565b905092915050565b6000602082019050919050565b60006112538261111f565b61125d818561112a565b93508360208202850161126f8561113b565b8060005b858110156112ab578484038952815161128c8582611227565b94506112978361123b565b925060208a01995050600181019050611273565b50829750879550505050505092915050565b600060a08301600083015184820360008601526112da82826110e6565b915050602083015184820360208601526112f48282611248565b9150506040830151611309604086018261114b565b50606083015161131c606086018261114b565b506080830151848203608086015261133482826110e6565b9150508091505092915050565b6000602082019050818103600083015261135b81846112bd565b905092915050565b600082825260208201905092915050565b600061137f8261108f565b6113898185611363565b93506113998185602086016110ab565b6113a2816110d5565b840191505092915050565b6113b681610f90565b82525050565b600060808201905081810360008301526113d68187611374565b90506113e560208301866113ad565b6113f260408301856113ad565b81810360608301526114048184611374565b905095945050505050565b600080fd5b600080fd5b600080fd5b60008083601f8401126114345761143361140f565b5b8235905067ffffffffffffffff81111561145157611450611414565b5b60208301915083600182028301111561146d5761146c611419565b5b9250929050565b6000806020838503121561148b5761148a610f04565b5b600083013567ffffffffffffffff8111156114a9576114a8610f09565b5b6114b58582860161141e565b92509250509250929050565b6000806000606084860312156114da576114d9610f04565b5b60006114e886828701610f57565b93505060206114f986828701610fb1565b925050604061150a86828701610fb1565b9150509250925092565b600082825260208201905092915050565b60006115308261111f565b61153a8185611514565b93508360208202850161154c8561113b565b8060005b8581101561158857848403895281516115698582611227565b94506115748361123b565b925060208a01995050600181019050611550565b50829750879550505050505092915050565b600060608201905081810360008301526115b48186611525565b90506115c360208301856113ad565b6115d060408301846113ad565b949350505050565b600080fd5b7f4e487b7100000000000000000000000000000000000000000000000000000000600052604160045260246000fd5b611615826110d5565b810181811067ffffffffffffffff82111715611634576116336115dd565b5b80604052505050565b6000611647610efa565b9050611653828261160c565b919050565b600080fd5b600080fd5b600067ffffffffffffffff82111561167d5761167c6115dd565b5b611686826110d5565b9050602081019050919050565b82818337600083830152505050565b60006116b56116b084611662565b61163d565b9050828152602081018484840111156116d1576116d061165d565b5b6116dc848285611693565b509392505050565b600082601f8301126116f9576116f861140f565b5b81356117098482602086016116a2565b91505092915050565b600060808284031215611728576117276115d8565b5b611732608061163d565b9050600061174284828501610fb1565b600083015250602082013567ffffffffffffffff81111561176657611765611658565b5b611772848285016116e4565b602083015250604061178684828501610fb1565b604083015250606082013567ffffffffffffffff8111156117aa576117a9611658565b5b6117b6848285016116e4565b60608301525092915050565b60006117ce3683611712565b9050919050565b7f4e487b7100000000000000000000000000000000000000000000000000000000600052602260045260246000fd5b6000600282049050600182168061181c57607f821691505b60208210810361182f5761182e6117d5565b5b50919050565b60008190508160005260206000209050919050565b60006020601f8301049050919050565b600082821b905092915050565b6000600883026118977fffffffffffffffffffffffffffffffffffffffffffffffffffffffffffffffff8261185a565b6118a1868361185a565b95508019841693508086168417925050509392505050565b6000819050919050565b60006118de6118d96118d484610f90565b6118b9565b610f90565b9050919050565b6000819050919050565b6118f8836118c3565b61190c611904826118e5565b848454611867565b825550505050565b600090565b611921611914565b61192c8184846118ef565b505050565b5b8181101561195057611945600082611919565b600181019050611932565b5050565b601f8211156119955761196681611835565b61196f8461184a565b8101602085101561197e578190505b61199261198a8561184a565b830182611931565b50505b505050565b600082821c905092915050565b60006119b86000198460080261199a565b1980831691505092915050565b60006119d183836119a7565b9150826002028217905092915050565b6119ea8261108f565b67ffffffffffffffff811115611a0357611a026115dd565b5b611a0d8254611804565b611a18828285611954565b600060209050601f831160018114611a4b5760008415611a39578287015190505b611a4385826119c5565b865550611aab565b601f198416611a5986611835565b60005b82811015611a8157848901518255600182019150602085019450602081019050611a5c565b86831015611a9e5784890151611a9a601f8916826119a7565b8355505b6001600288020188555050505b505050505050565b7f4e487b7100000000000000000000000000000000000000000000000000000000600052601160045260246000fd5b6000611aed82610f90565b9150611af883610f90565b9250828201905080821115611b1057611b0f611ab3565b5b92915050565b7f4e487b7100000000000000000000000000000000000000000000000000000000600052603260045260246000fd5b611b4e81610f2e565b82525050565b60008190508160005260206000209050919050565b60008154611b7681611804565b611b808186611363565b94506001821660008114611b9b5760018114611bb157611be4565b60ff198316865281151560200286019350611be4565b611bba85611b54565b60005b83811015611bdc57815481890152600182019150602081019050611bbd565b808801955050505b50505092915050565b6000606082019050611c026000830186611b45565b611c0f60208301856113ad565b8181036040830152611c218184611b69565b9050949350505050565b600082905092915050565b611c408383611c2b565b67ffffffffffffffff811115611c5957611c586115dd565b5b611c638254611804565b611c6e828285611954565b6000601f831160018114611c9d5760008415611c8b578287013590505b611c9585826119c5565b865550611cfd565b601f198416611cab86611835565b60005b82811015611cd357848901358255600182019150602085019450602081019050611cae565b86831015611cf05784890135611cec601f8916826119a7565b8355505b6001600288020188555050505b50505050505050565b6000611d1182610f90565b9150611d1c83610f90565b9250828203905081811115611d3457611d33611ab3565b5b92915050565b6000611d4582610f90565b91507fffffffffffffffffffffffffffffffffffffffffffffffffffffffffffffffff8203611d7757611d76611ab3565b5b60018201905091905056fea2646970667358221220985fc30ade10462506761d00f1cad27cad7ed9c62776643e4977c5ae1b15da0964736f6c6343000811003360806040526040518060800160405280605681526020016200357460569139600890816200002e91906200043d565b503480156200003c57600080fd5b506040518060400160405280600d81526020017f4f76657266756e6465644e4654000000000000000000000000000000000000008152506040518060400160405280600481526020017f4f4e4654000000000000000000000000000000000000000000000000000000008152508160009081620000ba91906200043d565b508060019081620000cc91906200043d565b505050620000ef620000e3620000f560201b60201c565b620000fd60201b60201c565b62000524565b600033905090565b6000600760009054906101000a900473ffffffffffffffffffffffffffffffffffffffff16905081600760006101000a81548173ffffffffffffffffffffffffffffffffffffffff021916908373ffffffffffffffffffffffffffffffffffffffff1602179055508173ffffffffffffffffffffffffffffffffffffffff168173ffffffffffffffffffffffffffffffffffffffff167f8be0079c531659141344cd1fd0a4f28419497f9722a3daafe3b4186f6b6457e060405160405180910390a35050565b600081519050919050565b7f4e487b7100000000000000000000000000000000000000000000000000000000600052604160045260246000fd5b7f4e487b7100000000000000000000000000000000000000000000000000000000600052602260045260246000fd5b600060028204905060018216806200024557607f821691505b6020821081036200025b576200025a620001fd565b5b50919050565b60008190508160005260206000209050919050565b60006020601f8301049050919050565b600082821b905092915050565b600060088302620002c57fffffffffffffffffffffffffffffffffffffffffffffffffffffffffffffffff8262000286565b620002d1868362000286565b95508019841693508086168417925050509392505050565b6000819050919050565b6000819050919050565b60006200031e620003186200031284620002e9565b620002f3565b620002e9565b9050919050565b6000819050919050565b6200033a83620002fd565b62000352620003498262000325565b84845462000293565b825550505050565b600090565b620003696200035a565b620003768184846200032f565b505050565b5b818110156200039e57620003926000826200035f565b6001810190506200037c565b5050565b601f821115620003ed57620003b78162000261565b620003c28462000276565b81016020851015620003d2578190505b620003ea620003e18562000276565b8301826200037b565b50505b505050565b600082821c905092915050565b60006200041260001984600802620003f2565b1980831691505092915050565b60006200042d8383620003ff565b9150826002028217905092915050565b6200044882620001c3565b67ffffffffffffffff811115620004645762000463620001ce565b5b6200047082546200022c565b6200047d828285620003a2565b600060209050601f831160018114620004b55760008415620004a0578287015190505b620004ac85826200041f565b8655506200051c565b601f198416620004c58662000261565b60005b82811015620004ef57848901518255600182019150602085019450602081019050620004c8565b868310156200050f57848901516200050b601f891682620003ff565b8355505b6001600288020188555050505b505050505050565b61304080620005346000396000f3fe608060405234801561001057600080fd5b506004361061010b5760003560e01c8063715018a6116100a2578063b88d4fde11610071578063b88d4fde146102a4578063c87b56dd146102c0578063cd279c7c146102f0578063e985e9c51461030c578063f2fde38b1461033c5761010b565b8063715018a6146102425780638da5cb5b1461024c57806395d89b411461026a578063a22cb465146102885761010b565b806323b872dd116100de57806323b872dd146101aa57806342842e0e146101c65780636352211e146101e257806370a08231146102125761010b565b806301ffc9a71461011057806306fdde0314610140578063081812fc1461015e578063095ea7b31461018e575b600080fd5b61012a60048036038101906101259190611d87565b610358565b6040516101379190611dcf565b60405180910390f35b61014861043a565b6040516101559190611e7a565b60405180910390f35b61017860048036038101906101739190611ed2565b6104cc565b6040516101859190611f40565b60405180910390f35b6101a860048036038101906101a39190611f87565b610512565b005b6101c460048036038101906101bf9190611fc7565b610629565b005b6101e060048036038101906101db9190611fc7565b610689565b005b6101fc60048036038101906101f79190611ed2565b6106a9565b6040516102099190611f40565b60405180910390f35b61022c6004803603810190610227919061201a565b61072f565b6040516102399190612056565b60405180910390f35b61024a6107e6565b005b6102546107fa565b6040516102619190611f40565b60405180910390f35b610272610824565b60405161027f9190611e7a565b60405180910390f35b6102a2600480360381019061029d919061209d565b6108b6565b005b6102be60048036038101906102b99190612212565b6108cc565b005b6102da60048036038101906102d59190611ed2565b61092e565b6040516102e79190611e7a565b60405180910390f35b61030a60048036038101906103059190612336565b610940565b005b610326600480360381019061032191906123a5565b6109eb565b6040516103339190611dcf565b60405180910390f35b6103566004803603810190610351919061201a565b610a7f565b005b60007f80ac58cd000000000000000000000000000000000000000000000000000000007bffffffffffffffffffffffffffffffffffffffffffffffffffffffff1916827bffffffffffffffffffffffffffffffffffffffffffffffffffffffff1916148061042357507f5b5e139f000000000000000000000000000000000000000000000000000000007bffffffffffffffffffffffffffffffffffffffffffffffffffffffff1916827bffffffffffffffffffffffffffffffffffffffffffffffffffffffff1916145b80610433575061043282610b02565b5b9050919050565b60606000805461044990612414565b80601f016020809104026020016040519081016040528092919081815260200182805461047590612414565b80156104c25780601f10610497576101008083540402835291602001916104c2565b820191906000526020600020905b8154815290600101906020018083116104a557829003601f168201915b5050505050905090565b60006104d782610b6c565b6004600083815260200190815260200160002060009054906101000a900473ffffffffffffffffffffffffffffffffffffffff169050919050565b600061051d826106a9565b90508073ffffffffffffffffffffffffffffffffffffffff168373ffffffffffffffffffffffffffffffffffffffff160361058d576040517f08c379a0000000000000000000000000000000000000000000000000000000008152600401610584906124b7565b60405180910390fd5b8073ffffffffffffffffffffffffffffffffffffffff166105ac610bb7565b73ffffffffffffffffffffffffffffffffffffffff1614806105db57506105da816105d5610bb7565b6109eb565b5b61061a576040517f08c379a000000000000000000000000000000000000000000000000000000000815260040161061190612549565b60405180910390fd5b6106248383610bbf565b505050565b61063a610634610bb7565b82610c78565b610679576040517f08c379a0000000000000000000000000000000000000000000000000000000008152600401610670906125db565b60405180910390fd5b610684838383610d0d565b505050565b6106a4838383604051806020016040528060008152506108cc565b505050565b6000806106b583611006565b9050600073ffffffffffffffffffffffffffffffffffffffff168173ffffffffffffffffffffffffffffffffffffffff1603610726576040517f08c379a000000000000000000000000000000000000000000000000000000000815260040161071d90612647565b60405180910390fd5b80915050919050565b60008073ffffffffffffffffffffffffffffffffffffffff168273ffffffffffffffffffffffffffffffffffffffff160361079f576040517f08c379a0000000000000000000000000000000000000000000000000000000008152600401610796906126d9565b60405180910390fd5b600360008373ffffffffffffffffffffffffffffffffffffffff1673ffffffffffffffffffffffffffffffffffffffff168152602001908152602001600020549050919050565b6107ee611043565b6107f860006110c1565b565b6000600760009054906101000a900473ffffffffffffffffffffffffffffffffffffffff16905090565b60606001805461083390612414565b80601f016020809104026020016040519081016040528092919081815260200182805461085f90612414565b80156108ac5780601f10610881576101008083540402835291602001916108ac565b820191906000526020600020905b81548152906001019060200180831161088f57829003601f168201915b5050505050905090565b6108c86108c1610bb7565b8383611187565b5050565b6108dd6108d7610bb7565b83610c78565b61091c576040517f08c379a0000000000000000000000000000000000000000000000000000000008152600401610913906125db565b60405180910390fd5b610928848484846112f3565b50505050565b60606109398261134f565b9050919050565b610948611043565b6109528383611461565b6109e6826008805461096390612414565b80601f016020809104026020016040519081016040528092919081815260200182805461098f90612414565b80156109dc5780601f106109b1576101008083540402835291602001916109dc565b820191906000526020600020905b8154815290600101906020018083116109bf57829003601f168201915b505050505061147f565b505050565b6000600560008473ffffffffffffffffffffffffffffffffffffffff1673ffffffffffffffffffffffffffffffffffffffff16815260200190815260200160002060008373ffffffffffffffffffffffffffffffffffffffff1673ffffffffffffffffffffffffffffffffffffffff16815260200190815260200160002060009054906101000a900460ff16905092915050565b610a87611043565b600073ffffffffffffffffffffffffffffffffffffffff168173ffffffffffffffffffffffffffffffffffffffff1603610af6576040517f08c379a0000000000000000000000000000000000000000000000000000000008152600401610aed9061276b565b60405180910390fd5b610aff816110c1565b50565b60007f01ffc9a7000000000000000000000000000000000000000000000000000000007bffffffffffffffffffffffffffffffffffffffffffffffffffffffff1916827bffffffffffffffffffffffffffffffffffffffffffffffffffffffff1916149050919050565b610b75816114ec565b610bb4576040517f08c379a0000000000000000000000000000000000000000000000000000000008152600401610bab90612647565b60405180910390fd5b50565b600033905090565b816004600083815260200190815260200160002060006101000a81548173ffffffffffffffffffffffffffffffffffffffff021916908373ffffffffffffffffffffffffffffffffffffffff160217905550808273ffffffffffffffffffffffffffffffffffffffff16610c32836106a9565b73ffffffffffffffffffffffffffffffffffffffff167f8c5be1e5ebec7d5bd14f71427d1e84f3dd0314c0f7b2291e5b200ac8c7c3b92560405160405180910390a45050565b600080610c84836106a9565b90508073ffffffffffffffffffffffffffffffffffffffff168473ffffffffffffffffffffffffffffffffffffffff161480610cc65750610cc581856109eb565b5b80610d0457508373ffffffffffffffffffffffffffffffffffffffff16610cec846104cc565b73ffffffffffffffffffffffffffffffffffffffff16145b91505092915050565b8273ffffffffffffffffffffffffffffffffffffffff16610d2d826106a9565b73ffffffffffffffffffffffffffffffffffffffff1614610d83576040517f08c379a0000000000000000000000000000000000000000000000000000000008152600401610d7a906127fd565b60405180910390fd5b600073ffffffffffffffffffffffffffffffffffffffff168273ffffffffffffffffffffffffffffffffffffffff1603610df2576040517f08c379a0000000000000000000000000000000000000000000000000000000008152600401610de99061288f565b60405180910390fd5b610dff838383600161152d565b8273ffffffffffffffffffffffffffffffffffffffff16610e1f826106a9565b73ffffffffffffffffffffffffffffffffffffffff1614610e75576040517f08c379a0000000000000000000000000000000000000000000000000000000008152600401610e6c906127fd565b60405180910390fd5b6004600082815260200190815260200160002060006101000a81549073ffffffffffffffffffffffffffffffffffffffff02191690556001600360008573ffffffffffffffffffffffffffffffffffffffff1673ffffffffffffffffffffffffffffffffffffffff168152602001908152602001600020600082825403925050819055506001600360008473ffffffffffffffffffffffffffffffffffffffff1673ffffffffffffffffffffffffffffffffffffffff16815260200190815260200160002060008282540192505081905550816002600083815260200190815260200160002060006101000a81548173ffffffffffffffffffffffffffffffffffffffff021916908373ffffffffffffffffffffffffffffffffffffffff160217905550808273ffffffffffffffffffffffffffffffffffffffff168473ffffffffffffffffffffffffffffffffffffffff167fddf252ad1be2c89b69c2b068fc378daa952ba7f163c4a11628f55a4df523b3ef60405160405180910390a46110018383836001611653565b505050565b60006002600083815260200190815260200160002060009054906101000a900473ffffffffffffffffffffffffffffffffffffffff169050919050565b61104b610bb7565b73ffffffffffffffffffffffffffffffffffffffff166110696107fa565b73ffffffffffffffffffffffffffffffffffffffff16146110bf576040517f08c379a00000000000000000000000000000000000000000000000000000000081526004016110b6906128fb565b60405180910390fd5b565b6000600760009054906101000a900473ffffffffffffffffffffffffffffffffffffffff16905081600760006101000a81548173ffffffffffffffffffffffffffffffffffffffff021916908373ffffffffffffffffffffffffffffffffffffffff1602179055508173ffffffffffffffffffffffffffffffffffffffff168173ffffffffffffffffffffffffffffffffffffffff167f8be0079c531659141344cd1fd0a4f28419497f9722a3daafe3b4186f6b6457e060405160405180910390a35050565b8173ffffffffffffffffffffffffffffffffffffffff168373ffffffffffffffffffffffffffffffffffffffff16036111f5576040517f08c379a00000000000000000000000000000000000000000000000000000000081526004016111ec90612967565b60405180910390fd5b80600560008573ffffffffffffffffffffffffffffffffffffffff1673ffffffffffffffffffffffffffffffffffffffff16815260200190815260200160002060008473ffffffffffffffffffffffffffffffffffffffff1673ffffffffffffffffffffffffffffffffffffffff16815260200190815260200160002060006101000a81548160ff0219169083151502179055508173ffffffffffffffffffffffffffffffffffffffff168373ffffffffffffffffffffffffffffffffffffffff167f17307eab39ab6107e8899845ad3d59bd9653f200f220920489ca2b5937696c31836040516112e69190611dcf565b60405180910390a3505050565b6112fe848484610d0d565b61130a84848484611659565b611349576040517f08c379a0000000000000000000000000000000000000000000000000000000008152600401611340906129f9565b60405180910390fd5b50505050565b606061135a82610b6c565b600060066000848152602001908152602001600020805461137a90612414565b80601f01602080910402602001604051908101604052809291908181526020018280546113a690612414565b80156113f35780601f106113c8576101008083540402835291602001916113f3565b820191906000526020600020905b8154815290600101906020018083116113d657829003601f168201915b5050505050905060006114046117e0565b9050600081510361141957819250505061145c565b60008251111561144e578082604051602001611436929190612a55565b6040516020818303038152906040529250505061145c565b611457846117f7565b925050505b919050565b61147b82826040518060200160405280600081525061185f565b5050565b611488826114ec565b6114c7576040517f08c379a00000000000000000000000000000000000000000000000000000000081526004016114be90612aeb565b60405180910390fd5b806006600084815260200190815260200160002090816114e79190612cb7565b505050565b60008073ffffffffffffffffffffffffffffffffffffffff1661150e83611006565b73ffffffffffffffffffffffffffffffffffffffff1614159050919050565b600181111561164d57600073ffffffffffffffffffffffffffffffffffffffff168473ffffffffffffffffffffffffffffffffffffffff16146115c15780600360008673ffffffffffffffffffffffffffffffffffffffff1673ffffffffffffffffffffffffffffffffffffffff16815260200190815260200160002060008282546115b99190612db8565b925050819055505b600073ffffffffffffffffffffffffffffffffffffffff168373ffffffffffffffffffffffffffffffffffffffff161461164c5780600360008573ffffffffffffffffffffffffffffffffffffffff1673ffffffffffffffffffffffffffffffffffffffff16815260200190815260200160002060008282546116449190612dec565b925050819055505b5b50505050565b50505050565b600061167a8473ffffffffffffffffffffffffffffffffffffffff166118ba565b156117d3578373ffffffffffffffffffffffffffffffffffffffff1663150b7a026116a3610bb7565b8786866040518563ffffffff1660e01b81526004016116c59493929190612e75565b6020604051808303816000875af192505050801561170157506040513d601f19601f820116820180604052508101906116fe9190612ed6565b60015b611783573d8060008114611731576040519150601f19603f3d011682016040523d82523d6000602084013e611736565b606091505b50600081510361177b576040517f08c379a0000000000000000000000000000000000000000000000000000000008152600401611772906129f9565b60405180910390fd5b805181602001fd5b63150b7a0260e01b7bffffffffffffffffffffffffffffffffffffffffffffffffffffffff1916817bffffffffffffffffffffffffffffffffffffffffffffffffffffffff1916149150506117d8565b600190505b949350505050565b606060405180602001604052806000815250905090565b606061180282610b6c565b600061180c6117e0565b9050600081511161182c5760405180602001604052806000815250611857565b80611836846118dd565b604051602001611847929190612a55565b6040516020818303038152906040525b915050919050565b61186983836119ab565b6118766000848484611659565b6118b5576040517f08c379a00000000000000000000000000000000000000000000000000000000081526004016118ac906129f9565b60405180910390fd5b505050565b6000808273ffffffffffffffffffffffffffffffffffffffff163b119050919050565b6060600060016118ec84611bc8565b01905060008167ffffffffffffffff81111561190b5761190a6120e7565b5b6040519080825280601f01601f19166020018201604052801561193d5781602001600182028036833780820191505090505b509050600082602001820190505b6001156119a0578080600190039150507f3031323334353637383961626364656600000000000000000000000000000000600a86061a8153600a858161199457611993612f03565b5b0494506000850361194b575b819350505050919050565b600073ffffffffffffffffffffffffffffffffffffffff168273ffffffffffffffffffffffffffffffffffffffff1603611a1a576040517f08c379a0000000000000000000000000000000000000000000000000000000008152600401611a1190612f7e565b60405180910390fd5b611a23816114ec565b15611a63576040517f08c379a0000000000000000000000000000000000000000000000000000000008152600401611a5a90612fea565b60405180910390fd5b611a7160008383600161152d565b611a7a816114ec565b15611aba576040517f08c379a0000000000000000000000000000000000000000000000000000000008152600401611ab190612fea565b60405180910390fd5b6001600360008473ffffffffffffffffffffffffffffffffffffffff1673ffffffffffffffffffffffffffffffffffffffff16815260200190815260200160002060008282540192505081905550816002600083815260200190815260200160002060006101000a81548173ffffffffffffffffffffffffffffffffffffffff021916908373ffffffffffffffffffffffffffffffffffffffff160217905550808273ffffffffffffffffffffffffffffffffffffffff16600073ffffffffffffffffffffffffffffffffffffffff167fddf252ad1be2c89b69c2b068fc378daa952ba7f163c4a11628f55a4df523b3ef60405160405180910390a4611bc4600083836001611653565b5050565b600080600090507a184f03e93ff9f4daa797ed6e38ed64bf6a1f0100000000000000008310611c26577a184f03e93ff9f4daa797ed6e38ed64bf6a1f0100000000000000008381611c1c57611c1b612f03565b5b0492506040810190505b6d04ee2d6d415b85acef81000000008310611c63576d04ee2d6d415b85acef81000000008381611c5957611c58612f03565b5b0492506020810190505b662386f26fc100008310611c9257662386f26fc100008381611c8857611c87612f03565b5b0492506010810190505b6305f5e1008310611cbb576305f5e1008381611cb157611cb0612f03565b5b0492506008810190505b6127108310611ce0576127108381611cd657611cd5612f03565b5b0492506004810190505b60648310611d035760648381611cf957611cf8612f03565b5b0492506002810190505b600a8310611d12576001810190505b80915050919050565b6000604051905090565b600080fd5b600080fd5b60007fffffffff0000000000000000000000000000000000000000000000000000000082169050919050565b611d6481611d2f565b8114611d6f57600080fd5b50565b600081359050611d8181611d5b565b92915050565b600060208284031215611d9d57611d9c611d25565b5b6000611dab84828501611d72565b91505092915050565b60008115159050919050565b611dc981611db4565b82525050565b6000602082019050611de46000830184611dc0565b92915050565b600081519050919050565b600082825260208201905092915050565b60005b83811015611e24578082015181840152602081019050611e09565b60008484015250505050565b6000601f19601f8301169050919050565b6000611e4c82611dea565b611e568185611df5565b9350611e66818560208601611e06565b611e6f81611e30565b840191505092915050565b60006020820190508181036000830152611e948184611e41565b905092915050565b6000819050919050565b611eaf81611e9c565b8114611eba57600080fd5b50565b600081359050611ecc81611ea6565b92915050565b600060208284031215611ee857611ee7611d25565b5b6000611ef684828501611ebd565b91505092915050565b600073ffffffffffffffffffffffffffffffffffffffff82169050919050565b6000611f2a82611eff565b9050919050565b611f3a81611f1f565b82525050565b6000602082019050611f556000830184611f31565b92915050565b611f6481611f1f565b8114611f6f57600080fd5b50565b600081359050611f8181611f5b565b92915050565b60008060408385031215611f9e57611f9d611d25565b5b6000611fac85828601611f72565b9250506020611fbd85828601611ebd565b9150509250929050565b600080600060608486031215611fe057611fdf611d25565b5b6000611fee86828701611f72565b9350506020611fff86828701611f72565b925050604061201086828701611ebd565b9150509250925092565b6000602082840312156120305761202f611d25565b5b600061203e84828501611f72565b91505092915050565b61205081611e9c565b82525050565b600060208201905061206b6000830184612047565b92915050565b61207a81611db4565b811461208557600080fd5b50565b60008135905061209781612071565b92915050565b600080604083850312156120b4576120b3611d25565b5b60006120c285828601611f72565b92505060206120d385828601612088565b9150509250929050565b600080fd5b600080fd5b7f4e487b7100000000000000000000000000000000000000000000000000000000600052604160045260246000fd5b61211f82611e30565b810181811067ffffffffffffffff8211171561213e5761213d6120e7565b5b80604052505050565b6000612151611d1b565b905061215d8282612116565b919050565b600067ffffffffffffffff82111561217d5761217c6120e7565b5b61218682611e30565b9050602081019050919050565b82818337600083830152505050565b60006121b56121b084612162565b612147565b9050828152602081018484840111156121d1576121d06120e2565b5b6121dc848285612193565b509392505050565b600082601f8301126121f9576121f86120dd565b5b81356122098482602086016121a2565b91505092915050565b6000806000806080858703121561222c5761222b611d25565b5b600061223a87828801611f72565b945050602061224b87828801611f72565b935050604061225c87828801611ebd565b925050606085013567ffffffffffffffff81111561227d5761227c611d2a565b5b612289878288016121e4565b91505092959194509250565b600067ffffffffffffffff8211156122b0576122af6120e7565b5b6122b982611e30565b9050602081019050919050565b60006122d96122d484612295565b612147565b9050828152602081018484840111156122f5576122f46120e2565b5b612300848285612193565b509392505050565b600082601f83011261231d5761231c6120dd565b5b813561232d8482602086016122c6565b91505092915050565b60008060006060848603121561234f5761234e611d25565b5b600061235d86828701611f72565b935050602061236e86828701611ebd565b925050604084013567ffffffffffffffff81111561238f5761238e611d2a565b5b61239b86828701612308565b9150509250925092565b600080604083850312156123bc576123bb611d25565b5b60006123ca85828601611f72565b92505060206123db85828601611f72565b9150509250929050565b7f4e487b7100000000000000000000000000000000000000000000000000000000600052602260045260246000fd5b6000600282049050600182168061242c57607f821691505b60208210810361243f5761243e6123e5565b5b50919050565b7f4552433732313a20617070726f76616c20746f2063757272656e74206f776e6560008201527f7200000000000000000000000000000000000000000000000000000000000000602082015250565b60006124a1602183611df5565b91506124ac82612445565b604082019050919050565b600060208201905081810360008301526124d081612494565b9050919050565b7f4552433732313a20617070726f76652063616c6c6572206973206e6f7420746f60008201527f6b656e206f776e6572206f7220617070726f76656420666f7220616c6c000000602082015250565b6000612533603d83611df5565b915061253e826124d7565b604082019050919050565b6000602082019050818103600083015261256281612526565b9050919050565b7f4552433732313a2063616c6c6572206973206e6f7420746f6b656e206f776e6560008201527f72206f7220617070726f76656400000000000000000000000000000000000000602082015250565b60006125c5602d83611df5565b91506125d082612569565b604082019050919050565b600060208201905081810360008301526125f4816125b8565b9050919050565b7f4552433732313a20696e76616c696420746f6b656e2049440000000000000000600082015250565b6000612631601883611df5565b915061263c826125fb565b602082019050919050565b6000602082019050818103600083015261266081612624565b9050919050565b7f4552433732313a2061646472657373207a65726f206973206e6f74206120766160008201527f6c6964206f776e65720000000000000000000000000000000000000000000000602082015250565b60006126c3602983611df5565b91506126ce82612667565b604082019050919050565b600060208201905081810360008301526126f2816126b6565b9050919050565b7f4f776e61626c653a206e6577206f776e657220697320746865207a65726f206160008201527f6464726573730000000000000000000000000000000000000000000000000000602082015250565b6000612755602683611df5565b9150612760826126f9565b604082019050919050565b6000602082019050818103600083015261278481612748565b9050919050565b7f4552433732313a207472616e736665722066726f6d20696e636f72726563742060008201527f6f776e6572000000000000000000000000000000000000000000000000000000602082015250565b60006127e7602583611df5565b91506127f28261278b565b604082019050919050565b60006020820190508181036000830152612816816127da565b9050919050565b7f4552433732313a207472616e7366657220746f20746865207a65726f2061646460008201527f7265737300000000000000000000000000000000000000000000000000000000602082015250565b6000612879602483611df5565b91506128848261281d565b604082019050919050565b600060208201905081810360008301526128a88161286c565b9050919050565b7f4f776e61626c653a2063616c6c6572206973206e6f7420746865206f776e6572600082015250565b60006128e5602083611df5565b91506128f0826128af565b602082019050919050565b60006020820190508181036000830152612914816128d8565b9050919050565b7f4552433732313a20617070726f766520746f2063616c6c657200000000000000600082015250565b6000612951601983611df5565b915061295c8261291b565b602082019050919050565b6000602082019050818103600083015261298081612944565b9050919050565b7f4552433732313a207472616e7366657220746f206e6f6e20455243373231526560008201527f63656976657220696d706c656d656e7465720000000000000000000000000000602082015250565b60006129e3603283611df5565b91506129ee82612987565b604082019050919050565b60006020820190508181036000830152612a12816129d6565b9050919050565b600081905092915050565b6000612a2f82611dea565b612a398185612a19565b9350612a49818560208601611e06565b80840191505092915050565b6000612a618285612a24565b9150612a6d8284612a24565b91508190509392505050565b7f45524337323155524953746f726167653a2055524920736574206f66206e6f6e60008201527f6578697374656e7420746f6b656e000000000000000000000000000000000000602082015250565b6000612ad5602e83611df5565b9150612ae082612a79565b604082019050919050565b60006020820190508181036000830152612b0481612ac8565b9050919050565b60008190508160005260206000209050919050565b60006020601f8301049050919050565b600082821b905092915050565b600060088302612b6d7fffffffffffffffffffffffffffffffffffffffffffffffffffffffffffffffff82612b30565b612b778683612b30565b95508019841693508086168417925050509392505050565b6000819050919050565b6000612bb4612baf612baa84611e9c565b612b8f565b611e9c565b9050919050565b6000819050919050565b612bce83612b99565b612be2612bda82612bbb565b848454612b3d565b825550505050565b600090565b612bf7612bea565b612c02818484612bc5565b505050565b5b81811015612c2657612c1b600082612bef565b600181019050612c08565b5050565b601f821115612c6b57612c3c81612b0b565b612c4584612b20565b81016020851015612c54578190505b612c68612c6085612b20565b830182612c07565b50505b505050565b600082821c905092915050565b6000612c8e60001984600802612c70565b1980831691505092915050565b6000612ca78383612c7d565b9150826002028217905092915050565b612cc082611dea565b67ffffffffffffffff811115612cd957612cd86120e7565b5b612ce38254612414565b612cee828285612c2a565b600060209050601f831160018114612d215760008415612d0f578287015190505b612d198582612c9b565b865550612d81565b601f198416612d2f86612b0b565b60005b82811015612d5757848901518255600182019150602085019450602081019050612d32565b86831015612d745784890151612d70601f891682612c7d565b8355505b6001600288020188555050505b505050505050565b7f4e487b7100000000000000000000000000000000000000000000000000000000600052601160045260246000fd5b6000612dc382611e9c565b9150612dce83611e9c565b9250828203905081811115612de657612de5612d89565b5b92915050565b6000612df782611e9c565b9150612e0283611e9c565b9250828201905080821115612e1a57612e19612d89565b5b92915050565b600081519050919050565b600082825260208201905092915050565b6000612e4782612e20565b612e518185612e2b565b9350612e61818560208601611e06565b612e6a81611e30565b840191505092915050565b6000608082019050612e8a6000830187611f31565b612e976020830186611f31565b612ea46040830185612047565b8181036060830152612eb68184612e3c565b905095945050505050565b600081519050612ed081611d5b565b92915050565b600060208284031215612eec57612eeb611d25565b5b6000612efa84828501612ec1565b91505092915050565b7f4e487b7100000000000000000000000000000000000000000000000000000000600052601260045260246000fd5b7f4552433732313a206d696e7420746f20746865207a65726f2061646472657373600082015250565b6000612f68602083611df5565b9150612f7382612f32565b602082019050919050565b60006020820190508181036000830152612f9781612f5b565b9050919050565b7f4552433732313a20746f6b656e20616c7265616479206d696e74656400000000600082015250565b6000612fd4601c83611df5565b9150612fdf82612f9e565b602082019050919050565b6000602082019050818103600083015261300381612fc7565b905091905056fea2646970667358221220fe11eec9cbd0f63ddf1a54b0bde444be711f67443e80bc45cc10ffff8364d35664736f6c6343000811003368747470733a2f2f7261772e67697468756275736572636f6e74656e742e636f6d2f5073696f6e79632f6f76657266756e6465642f6d61737465722f636f6e74726163742f6e66745f6d657461646174612e6a736f6e",
  "linkReferences": {},
  "deployedLinkReferences": {}
}