{
  "_format": "hh-sol-artifact-1",
  "contractName": "OverfundedNFT",
  "sourceName": "contracts/ONFT.sol",
  "abi": [
    {
      "inputs": [],
      "stateMutability": "nonpayable",
      "type": "constructor"
    },
    {
      "anonymous": false,
      "inputs": [
        {
          "indexed": true,
          "internalType": "address",
          "name": "owner",
          "type": "address"
        },
        {
          "indexed": true,
          "internalType": "address",
          "name": "approved",
          "type": "address"
        },
        {
          "indexed": true,
          "internalType": "uint256",
          "name": "tokenId",
          "type": "uint256"
        }
      ],
      "name": "Approval",
      "type": "event"
    },
    {
      "anonymous": false,
      "inputs": [
        {
          "indexed": true,
          "internalType": "address",
          "name": "owner",
          "type": "address"
        },
        {
          "indexed": true,
          "internalType": "address",
          "name": "operator",
          "type": "address"
        },
        {
          "indexed": false,
          "internalType": "bool",
          "name": "approved",
          "type": "bool"
        }
      ],
      "name": "ApprovalForAll",
      "type": "event"
    },
    {
      "anonymous": false,
      "inputs": [
        {
          "indexed": true,
          "internalType": "address",
          "name": "previousOwner",
          "type": "address"
        },
        {
          "indexed": true,
          "internalType": "address",
          "name": "newOwner",
          "type": "address"
        }
      ],
      "name": "OwnershipTransferred",
      "type": "event"
    },
    {
      "anonymous": false,
      "inputs": [
        {
          "indexed": true,
          "internalType": "address",
          "name": "from",
          "type": "address"
        },
        {
          "indexed": true,
          "internalType": "address",
          "name": "to",
          "type": "address"
        },
        {
          "indexed": true,
          "internalType": "uint256",
          "name": "tokenId",
          "type": "uint256"
        }
      ],
      "name": "Transfer",
      "type": "event"
    },
    {
      "inputs": [
        {
          "internalType": "address",
          "name": "to",
          "type": "address"
        },
        {
          "internalType": "uint256",
          "name": "tokenId",
          "type": "uint256"
        }
      ],
      "name": "approve",
      "outputs": [],
      "stateMutability": "nonpayable",
      "type": "function"
    },
    {
      "inputs": [
        {
          "internalType": "address",
          "name": "owner",
          "type": "address"
        }
      ],
      "name": "balanceOf",
      "outputs": [
        {
          "internalType": "uint256",
          "name": "",
          "type": "uint256"
        }
      ],
      "stateMutability": "view",
      "type": "function"
    },
    {
      "inputs": [
        {
          "internalType": "uint256",
          "name": "tokenId",
          "type": "uint256"
        }
      ],
      "name": "getApproved",
      "outputs": [
        {
          "internalType": "address",
          "name": "",
          "type": "address"
        }
      ],
      "stateMutability": "view",
      "type": "function"
    },
    {
      "inputs": [
        {
          "internalType": "address",
          "name": "owner",
          "type": "address"
        },
        {
          "internalType": "address",
          "name": "operator",
          "type": "address"
        }
      ],
      "name": "isApprovedForAll",
      "outputs": [
        {
          "internalType": "bool",
          "name": "",
          "type": "bool"
        }
      ],
      "stateMutability": "view",
      "type": "function"
    },
    {
      "inputs": [],
      "name": "name",
      "outputs": [
        {
          "internalType": "string",
          "name": "",
          "type": "string"
        }
      ],
      "stateMutability": "view",
      "type": "function"
    },
    {
      "inputs": [],
      "name": "owner",
      "outputs": [
        {
          "internalType": "address",
          "name": "",
          "type": "address"
        }
      ],
      "stateMutability": "view",
      "type": "function"
    },
    {
      "inputs": [
        {
          "internalType": "uint256",
          "name": "tokenId",
          "type": "uint256"
        }
      ],
      "name": "ownerOf",
      "outputs": [
        {
          "internalType": "address",
          "name": "",
          "type": "address"
        }
      ],
      "stateMutability": "view",
      "type": "function"
    },
    {
      "inputs": [],
      "name": "renounceOwnership",
      "outputs": [],
      "stateMutability": "nonpayable",
      "type": "function"
    },
    {
      "inputs": [
        {
          "internalType": "address",
          "name": "to",
          "type": "address"
        },
        {
          "internalType": "uint256",
          "name": "tokenId",
          "type": "uint256"
        },
        {
          "internalType": "string",
          "name": "_uri",
          "type": "string"
        }
      ],
      "name": "safeMint",
      "outputs": [],
      "stateMutability": "nonpayable",
      "type": "function"
    },
    {
      "inputs": [
        {
          "internalType": "address",
          "name": "from",
          "type": "address"
        },
        {
          "internalType": "address",
          "name": "to",
          "type": "address"
        },
        {
          "internalType": "uint256",
          "name": "tokenId",
          "type": "uint256"
        }
      ],
      "name": "safeTransferFrom",
      "outputs": [],
      "stateMutability": "nonpayable",
      "type": "function"
    },
    {
      "inputs": [
        {
          "internalType": "address",
          "name": "from",
          "type": "address"
        },
        {
          "internalType": "address",
          "name": "to",
          "type": "address"
        },
        {
          "internalType": "uint256",
          "name": "tokenId",
          "type": "uint256"
        },
        {
          "internalType": "bytes",
          "name": "data",
          "type": "bytes"
        }
      ],
      "name": "safeTransferFrom",
      "outputs": [],
      "stateMutability": "nonpayable",
      "type": "function"
    },
    {
      "inputs": [
        {
          "internalType": "address",
          "name": "operator",
          "type": "address"
        },
        {
          "internalType": "bool",
          "name": "approved",
          "type": "bool"
        }
      ],
      "name": "setApprovalForAll",
      "outputs": [],
      "stateMutability": "nonpayable",
      "type": "function"
    },
    {
      "inputs": [
        {
          "internalType": "bytes4",
          "name": "interfaceId",
          "type": "bytes4"
        }
      ],
      "name": "supportsInterface",
      "outputs": [
        {
          "internalType": "bool",
          "name": "",
          "type": "bool"
        }
      ],
      "stateMutability": "view",
      "type": "function"
    },
    {
      "inputs": [],
      "name": "symbol",
      "outputs": [
        {
          "internalType": "string",
          "name": "",
          "type": "string"
        }
      ],
      "stateMutability": "view",
      "type": "function"
    },
    {
      "inputs": [
        {
          "internalType": "uint256",
          "name": "tokenId",
          "type": "uint256"
        }
      ],
      "name": "tokenURI",
      "outputs": [
        {
          "internalType": "string",
          "name": "",
          "type": "string"
        }
      ],
      "stateMutability": "view",
      "type": "function"
    },
    {
      "inputs": [
        {
          "internalType": "address",
          "name": "from",
          "type": "address"
        },
        {
          "internalType": "address",
          "name": "to",
          "type": "address"
        },
        {
          "internalType": "uint256",
          "name": "tokenId",
          "type": "uint256"
        }
      ],
      "name": "transferFrom",
      "outputs": [],
      "stateMutability": "nonpayable",
      "type": "function"
    },
    {
      "inputs": [
        {
          "internalType": "address",
          "name": "newOwner",
          "type": "address"
        }
      ],
      "name": "transferOwnership",
      "outputs": [],
      "stateMutability": "nonpayable",
      "type": "function"
    }
  ],
  "bytecode": "0x6080604052604051806080016040528060568152602001620034ea60569139600890816200002e91906200043d565b503480156200003c57600080fd5b506040518060400160405280600d81526020017f4f76657266756e6465644e4654000000000000000000000000000000000000008152506040518060400160405280600481526020017f4f4e4654000000000000000000000000000000000000000000000000000000008152508160009081620000ba91906200043d565b508060019081620000cc91906200043d565b505050620000ef620000e3620000f560201b60201c565b620000fd60201b60201c565b62000524565b600033905090565b6000600760009054906101000a900473ffffffffffffffffffffffffffffffffffffffff16905081600760006101000a81548173ffffffffffffffffffffffffffffffffffffffff021916908373ffffffffffffffffffffffffffffffffffffffff1602179055508173ffffffffffffffffffffffffffffffffffffffff168173ffffffffffffffffffffffffffffffffffffffff167f8be0079c531659141344cd1fd0a4f28419497f9722a3daafe3b4186f6b6457e060405160405180910390a35050565b600081519050919050565b7f4e487b7100000000000000000000000000000000000000000000000000000000600052604160045260246000fd5b7f4e487b7100000000000000000000000000000000000000000000000000000000600052602260045260246000fd5b600060028204905060018216806200024557607f821691505b6020821081036200025b576200025a620001fd565b5b50919050565b60008190508160005260206000209050919050565b60006020601f8301049050919050565b600082821b905092915050565b600060088302620002c57fffffffffffffffffffffffffffffffffffffffffffffffffffffffffffffffff8262000286565b620002d1868362000286565b95508019841693508086168417925050509392505050565b6000819050919050565b6000819050919050565b60006200031e620003186200031284620002e9565b620002f3565b620002e9565b9050919050565b6000819050919050565b6200033a83620002fd565b62000352620003498262000325565b84845462000293565b825550505050565b600090565b620003696200035a565b620003768184846200032f565b505050565b5b818110156200039e57620003926000826200035f565b6001810190506200037c565b5050565b601f821115620003ed57620003b78162000261565b620003c28462000276565b81016020851015620003d2578190505b620003ea620003e18562000276565b8301826200037b565b50505b505050565b600082821c905092915050565b60006200041260001984600802620003f2565b1980831691505092915050565b60006200042d8383620003ff565b9150826002028217905092915050565b6200044882620001c3565b67ffffffffffffffff811115620004645762000463620001ce565b5b6200047082546200022c565b6200047d828285620003a2565b600060209050601f831160018114620004b55760008415620004a0578287015190505b620004ac85826200041f565b8655506200051c565b601f198416620004c58662000261565b60005b82811015620004ef57848901518255600182019150602085019450602081019050620004c8565b868310156200050f57848901516200050b601f891682620003ff565b8355505b6001600288020188555050505b505050505050565b612fb680620005346000396000f3fe608060405234801561001057600080fd5b506004361061010b5760003560e01c8063715018a6116100a2578063b88d4fde11610071578063b88d4fde146102a4578063c87b56dd146102c0578063cd279c7c146102f0578063e985e9c51461030c578063f2fde38b1461033c5761010b565b8063715018a6146102425780638da5cb5b1461024c57806395d89b411461026a578063a22cb465146102885761010b565b806323b872dd116100de57806323b872dd146101aa57806342842e0e146101c65780636352211e146101e257806370a08231146102125761010b565b806301ffc9a71461011057806306fdde0314610140578063081812fc1461015e578063095ea7b31461018e575b600080fd5b61012a60048036038101906101259190611cfd565b610358565b6040516101379190611d45565b60405180910390f35b61014861043a565b6040516101559190611df0565b60405180910390f35b61017860048036038101906101739190611e48565b6104cc565b6040516101859190611eb6565b60405180910390f35b6101a860048036038101906101a39190611efd565b610512565b005b6101c460048036038101906101bf9190611f3d565b610629565b005b6101e060048036038101906101db9190611f3d565b610689565b005b6101fc60048036038101906101f79190611e48565b6106a9565b6040516102099190611eb6565b60405180910390f35b61022c60048036038101906102279190611f90565b61072f565b6040516102399190611fcc565b60405180910390f35b61024a6107e6565b005b6102546107fa565b6040516102619190611eb6565b60405180910390f35b610272610824565b60405161027f9190611df0565b60405180910390f35b6102a2600480360381019061029d9190612013565b6108b6565b005b6102be60048036038101906102b99190612188565b6108cc565b005b6102da60048036038101906102d59190611e48565b61092e565b6040516102e79190611df0565b60405180910390f35b61030a600480360381019061030591906122ac565b610940565b005b6103266004803603810190610321919061231b565b610961565b6040516103339190611d45565b60405180910390f35b61035660048036038101906103519190611f90565b6109f5565b005b60007f80ac58cd000000000000000000000000000000000000000000000000000000007bffffffffffffffffffffffffffffffffffffffffffffffffffffffff1916827bffffffffffffffffffffffffffffffffffffffffffffffffffffffff1916148061042357507f5b5e139f000000000000000000000000000000000000000000000000000000007bffffffffffffffffffffffffffffffffffffffffffffffffffffffff1916827bffffffffffffffffffffffffffffffffffffffffffffffffffffffff1916145b80610433575061043282610a78565b5b9050919050565b6060600080546104499061238a565b80601f01602080910402602001604051908101604052809291908181526020018280546104759061238a565b80156104c25780601f10610497576101008083540402835291602001916104c2565b820191906000526020600020905b8154815290600101906020018083116104a557829003601f168201915b5050505050905090565b60006104d782610ae2565b6004600083815260200190815260200160002060009054906101000a900473ffffffffffffffffffffffffffffffffffffffff169050919050565b600061051d826106a9565b90508073ffffffffffffffffffffffffffffffffffffffff168373ffffffffffffffffffffffffffffffffffffffff160361058d576040517f08c379a00000000000000000000000000000000000000000000000000000000081526004016105849061242d565b60405180910390fd5b8073ffffffffffffffffffffffffffffffffffffffff166105ac610b2d565b73ffffffffffffffffffffffffffffffffffffffff1614806105db57506105da816105d5610b2d565b610961565b5b61061a576040517f08c379a0000000000000000000000000000000000000000000000000000000008152600401610611906124bf565b60405180910390fd5b6106248383610b35565b505050565b61063a610634610b2d565b82610bee565b610679576040517f08c379a000000000000000000000000000000000000000000000000000000000815260040161067090612551565b60405180910390fd5b610684838383610c83565b505050565b6106a4838383604051806020016040528060008152506108cc565b505050565b6000806106b583610f7c565b9050600073ffffffffffffffffffffffffffffffffffffffff168173ffffffffffffffffffffffffffffffffffffffff1603610726576040517f08c379a000000000000000000000000000000000000000000000000000000000815260040161071d906125bd565b60405180910390fd5b80915050919050565b60008073ffffffffffffffffffffffffffffffffffffffff168273ffffffffffffffffffffffffffffffffffffffff160361079f576040517f08c379a00000000000000000000000000000000000000000000000000000000081526004016107969061264f565b60405180910390fd5b600360008373ffffffffffffffffffffffffffffffffffffffff1673ffffffffffffffffffffffffffffffffffffffff168152602001908152602001600020549050919050565b6107ee610fb9565b6107f86000611037565b565b6000600760009054906101000a900473ffffffffffffffffffffffffffffffffffffffff16905090565b6060600180546108339061238a565b80601f016020809104026020016040519081016040528092919081815260200182805461085f9061238a565b80156108ac5780601f10610881576101008083540402835291602001916108ac565b820191906000526020600020905b81548152906001019060200180831161088f57829003601f168201915b5050505050905090565b6108c86108c1610b2d565b83836110fd565b5050565b6108dd6108d7610b2d565b83610bee565b61091c576040517f08c379a000000000000000000000000000000000000000000000000000000000815260040161091390612551565b60405180910390fd5b61092884848484611269565b50505050565b6060610939826112c5565b9050919050565b610948610fb9565b61095283836113d7565b61095c82826113f5565b505050565b6000600560008473ffffffffffffffffffffffffffffffffffffffff1673ffffffffffffffffffffffffffffffffffffffff16815260200190815260200160002060008373ffffffffffffffffffffffffffffffffffffffff1673ffffffffffffffffffffffffffffffffffffffff16815260200190815260200160002060009054906101000a900460ff16905092915050565b6109fd610fb9565b600073ffffffffffffffffffffffffffffffffffffffff168173ffffffffffffffffffffffffffffffffffffffff1603610a6c576040517f08c379a0000000000000000000000000000000000000000000000000000000008152600401610a63906126e1565b60405180910390fd5b610a7581611037565b50565b60007f01ffc9a7000000000000000000000000000000000000000000000000000000007bffffffffffffffffffffffffffffffffffffffffffffffffffffffff1916827bffffffffffffffffffffffffffffffffffffffffffffffffffffffff1916149050919050565b610aeb81611462565b610b2a576040517f08c379a0000000000000000000000000000000000000000000000000000000008152600401610b21906125bd565b60405180910390fd5b50565b600033905090565b816004600083815260200190815260200160002060006101000a81548173ffffffffffffffffffffffffffffffffffffffff021916908373ffffffffffffffffffffffffffffffffffffffff160217905550808273ffffffffffffffffffffffffffffffffffffffff16610ba8836106a9565b73ffffffffffffffffffffffffffffffffffffffff167f8c5be1e5ebec7d5bd14f71427d1e84f3dd0314c0f7b2291e5b200ac8c7c3b92560405160405180910390a45050565b600080610bfa836106a9565b90508073ffffffffffffffffffffffffffffffffffffffff168473ffffffffffffffffffffffffffffffffffffffff161480610c3c5750610c3b8185610961565b5b80610c7a57508373ffffffffffffffffffffffffffffffffffffffff16610c62846104cc565b73ffffffffffffffffffffffffffffffffffffffff16145b91505092915050565b8273ffffffffffffffffffffffffffffffffffffffff16610ca3826106a9565b73ffffffffffffffffffffffffffffffffffffffff1614610cf9576040517f08c379a0000000000000000000000000000000000000000000000000000000008152600401610cf090612773565b60405180910390fd5b600073ffffffffffffffffffffffffffffffffffffffff168273ffffffffffffffffffffffffffffffffffffffff1603610d68576040517f08c379a0000000000000000000000000000000000000000000000000000000008152600401610d5f90612805565b60405180910390fd5b610d7583838360016114a3565b8273ffffffffffffffffffffffffffffffffffffffff16610d95826106a9565b73ffffffffffffffffffffffffffffffffffffffff1614610deb576040517f08c379a0000000000000000000000000000000000000000000000000000000008152600401610de290612773565b60405180910390fd5b6004600082815260200190815260200160002060006101000a81549073ffffffffffffffffffffffffffffffffffffffff02191690556001600360008573ffffffffffffffffffffffffffffffffffffffff1673ffffffffffffffffffffffffffffffffffffffff168152602001908152602001600020600082825403925050819055506001600360008473ffffffffffffffffffffffffffffffffffffffff1673ffffffffffffffffffffffffffffffffffffffff16815260200190815260200160002060008282540192505081905550816002600083815260200190815260200160002060006101000a81548173ffffffffffffffffffffffffffffffffffffffff021916908373ffffffffffffffffffffffffffffffffffffffff160217905550808273ffffffffffffffffffffffffffffffffffffffff168473ffffffffffffffffffffffffffffffffffffffff167fddf252ad1be2c89b69c2b068fc378daa952ba7f163c4a11628f55a4df523b3ef60405160405180910390a4610f7783838360016115c9565b505050565b60006002600083815260200190815260200160002060009054906101000a900473ffffffffffffffffffffffffffffffffffffffff169050919050565b610fc1610b2d565b73ffffffffffffffffffffffffffffffffffffffff16610fdf6107fa565b73ffffffffffffffffffffffffffffffffffffffff1614611035576040517f08c379a000000000000000000000000000000000000000000000000000000000815260040161102c90612871565b60405180910390fd5b565b6000600760009054906101000a900473ffffffffffffffffffffffffffffffffffffffff16905081600760006101000a81548173ffffffffffffffffffffffffffffffffffffffff021916908373ffffffffffffffffffffffffffffffffffffffff1602179055508173ffffffffffffffffffffffffffffffffffffffff168173ffffffffffffffffffffffffffffffffffffffff167f8be0079c531659141344cd1fd0a4f28419497f9722a3daafe3b4186f6b6457e060405160405180910390a35050565b8173ffffffffffffffffffffffffffffffffffffffff168373ffffffffffffffffffffffffffffffffffffffff160361116b576040517f08c379a0000000000000000000000000000000000000000000000000000000008152600401611162906128dd565b60405180910390fd5b80600560008573ffffffffffffffffffffffffffffffffffffffff1673ffffffffffffffffffffffffffffffffffffffff16815260200190815260200160002060008473ffffffffffffffffffffffffffffffffffffffff1673ffffffffffffffffffffffffffffffffffffffff16815260200190815260200160002060006101000a81548160ff0219169083151502179055508173ffffffffffffffffffffffffffffffffffffffff168373ffffffffffffffffffffffffffffffffffffffff167f17307eab39ab6107e8899845ad3d59bd9653f200f220920489ca2b5937696c318360405161125c9190611d45565b60405180910390a3505050565b611274848484610c83565b611280848484846115cf565b6112bf576040517f08c379a00000000000000000000000000000000000000000000000000000000081526004016112b69061296f565b60405180910390fd5b50505050565b60606112d082610ae2565b60006006600084815260200190815260200160002080546112f09061238a565b80601f016020809104026020016040519081016040528092919081815260200182805461131c9061238a565b80156113695780601f1061133e57610100808354040283529160200191611369565b820191906000526020600020905b81548152906001019060200180831161134c57829003601f168201915b50505050509050600061137a611756565b9050600081510361138f5781925050506113d2565b6000825111156113c45780826040516020016113ac9291906129cb565b604051602081830303815290604052925050506113d2565b6113cd8461176d565b925050505b919050565b6113f18282604051806020016040528060008152506117d5565b5050565b6113fe82611462565b61143d576040517f08c379a000000000000000000000000000000000000000000000000000000000815260040161143490612a61565b60405180910390fd5b8060066000848152602001908152602001600020908161145d9190612c2d565b505050565b60008073ffffffffffffffffffffffffffffffffffffffff1661148483610f7c565b73ffffffffffffffffffffffffffffffffffffffff1614159050919050565b60018111156115c357600073ffffffffffffffffffffffffffffffffffffffff168473ffffffffffffffffffffffffffffffffffffffff16146115375780600360008673ffffffffffffffffffffffffffffffffffffffff1673ffffffffffffffffffffffffffffffffffffffff168152602001908152602001600020600082825461152f9190612d2e565b925050819055505b600073ffffffffffffffffffffffffffffffffffffffff168373ffffffffffffffffffffffffffffffffffffffff16146115c25780600360008573ffffffffffffffffffffffffffffffffffffffff1673ffffffffffffffffffffffffffffffffffffffff16815260200190815260200160002060008282546115ba9190612d62565b925050819055505b5b50505050565b50505050565b60006115f08473ffffffffffffffffffffffffffffffffffffffff16611830565b15611749578373ffffffffffffffffffffffffffffffffffffffff1663150b7a02611619610b2d565b8786866040518563ffffffff1660e01b815260040161163b9493929190612deb565b6020604051808303816000875af192505050801561167757506040513d601f19601f820116820180604052508101906116749190612e4c565b60015b6116f9573d80600081146116a7576040519150601f19603f3d011682016040523d82523d6000602084013e6116ac565b606091505b5060008151036116f1576040517f08c379a00000000000000000000000000000000000000000000000000000000081526004016116e89061296f565b60405180910390fd5b805181602001fd5b63150b7a0260e01b7bffffffffffffffffffffffffffffffffffffffffffffffffffffffff1916817bffffffffffffffffffffffffffffffffffffffffffffffffffffffff19161491505061174e565b600190505b949350505050565b606060405180602001604052806000815250905090565b606061177882610ae2565b6000611782611756565b905060008151116117a257604051806020016040528060008152506117cd565b806117ac84611853565b6040516020016117bd9291906129cb565b6040516020818303038152906040525b915050919050565b6117df8383611921565b6117ec60008484846115cf565b61182b576040517f08c379a00000000000000000000000000000000000000000000000000000000081526004016118229061296f565b60405180910390fd5b505050565b6000808273ffffffffffffffffffffffffffffffffffffffff163b119050919050565b60606000600161186284611b3e565b01905060008167ffffffffffffffff8111156118815761188061205d565b5b6040519080825280601f01601f1916602001820160405280156118b35781602001600182028036833780820191505090505b509050600082602001820190505b600115611916578080600190039150507f3031323334353637383961626364656600000000000000000000000000000000600a86061a8153600a858161190a57611909612e79565b5b049450600085036118c1575b819350505050919050565b600073ffffffffffffffffffffffffffffffffffffffff168273ffffffffffffffffffffffffffffffffffffffff1603611990576040517f08c379a000000000000000000000000000000000000000000000000000000000815260040161198790612ef4565b60405180910390fd5b61199981611462565b156119d9576040517f08c379a00000000000000000000000000000000000000000000000000000000081526004016119d090612f60565b60405180910390fd5b6119e76000838360016114a3565b6119f081611462565b15611a30576040517f08c379a0000000000000000000000000000000000000000000000000000000008152600401611a2790612f60565b60405180910390fd5b6001600360008473ffffffffffffffffffffffffffffffffffffffff1673ffffffffffffffffffffffffffffffffffffffff16815260200190815260200160002060008282540192505081905550816002600083815260200190815260200160002060006101000a81548173ffffffffffffffffffffffffffffffffffffffff021916908373ffffffffffffffffffffffffffffffffffffffff160217905550808273ffffffffffffffffffffffffffffffffffffffff16600073ffffffffffffffffffffffffffffffffffffffff167fddf252ad1be2c89b69c2b068fc378daa952ba7f163c4a11628f55a4df523b3ef60405160405180910390a4611b3a6000838360016115c9565b5050565b600080600090507a184f03e93ff9f4daa797ed6e38ed64bf6a1f0100000000000000008310611b9c577a184f03e93ff9f4daa797ed6e38ed64bf6a1f0100000000000000008381611b9257611b91612e79565b5b0492506040810190505b6d04ee2d6d415b85acef81000000008310611bd9576d04ee2d6d415b85acef81000000008381611bcf57611bce612e79565b5b0492506020810190505b662386f26fc100008310611c0857662386f26fc100008381611bfe57611bfd612e79565b5b0492506010810190505b6305f5e1008310611c31576305f5e1008381611c2757611c26612e79565b5b0492506008810190505b6127108310611c56576127108381611c4c57611c4b612e79565b5b0492506004810190505b60648310611c795760648381611c6f57611c6e612e79565b5b0492506002810190505b600a8310611c88576001810190505b80915050919050565b6000604051905090565b600080fd5b600080fd5b60007fffffffff0000000000000000000000000000000000000000000000000000000082169050919050565b611cda81611ca5565b8114611ce557600080fd5b50565b600081359050611cf781611cd1565b92915050565b600060208284031215611d1357611d12611c9b565b5b6000611d2184828501611ce8565b91505092915050565b60008115159050919050565b611d3f81611d2a565b82525050565b6000602082019050611d5a6000830184611d36565b92915050565b600081519050919050565b600082825260208201905092915050565b60005b83811015611d9a578082015181840152602081019050611d7f565b60008484015250505050565b6000601f19601f8301169050919050565b6000611dc282611d60565b611dcc8185611d6b565b9350611ddc818560208601611d7c565b611de581611da6565b840191505092915050565b60006020820190508181036000830152611e0a8184611db7565b905092915050565b6000819050919050565b611e2581611e12565b8114611e3057600080fd5b50565b600081359050611e4281611e1c565b92915050565b600060208284031215611e5e57611e5d611c9b565b5b6000611e6c84828501611e33565b91505092915050565b600073ffffffffffffffffffffffffffffffffffffffff82169050919050565b6000611ea082611e75565b9050919050565b611eb081611e95565b82525050565b6000602082019050611ecb6000830184611ea7565b92915050565b611eda81611e95565b8114611ee557600080fd5b50565b600081359050611ef781611ed1565b92915050565b60008060408385031215611f1457611f13611c9b565b5b6000611f2285828601611ee8565b9250506020611f3385828601611e33565b9150509250929050565b600080600060608486031215611f5657611f55611c9b565b5b6000611f6486828701611ee8565b9350506020611f7586828701611ee8565b9250506040611f8686828701611e33565b9150509250925092565b600060208284031215611fa657611fa5611c9b565b5b6000611fb484828501611ee8565b91505092915050565b611fc681611e12565b82525050565b6000602082019050611fe16000830184611fbd565b92915050565b611ff081611d2a565b8114611ffb57600080fd5b50565b60008135905061200d81611fe7565b92915050565b6000806040838503121561202a57612029611c9b565b5b600061203885828601611ee8565b925050602061204985828601611ffe565b9150509250929050565b600080fd5b600080fd5b7f4e487b7100000000000000000000000000000000000000000000000000000000600052604160045260246000fd5b61209582611da6565b810181811067ffffffffffffffff821117156120b4576120b361205d565b5b80604052505050565b60006120c7611c91565b90506120d3828261208c565b919050565b600067ffffffffffffffff8211156120f3576120f261205d565b5b6120fc82611da6565b9050602081019050919050565b82818337600083830152505050565b600061212b612126846120d8565b6120bd565b90508281526020810184848401111561214757612146612058565b5b612152848285612109565b509392505050565b600082601f83011261216f5761216e612053565b5b813561217f848260208601612118565b91505092915050565b600080600080608085870312156121a2576121a1611c9b565b5b60006121b087828801611ee8565b94505060206121c187828801611ee8565b93505060406121d287828801611e33565b925050606085013567ffffffffffffffff8111156121f3576121f2611ca0565b5b6121ff8782880161215a565b91505092959194509250565b600067ffffffffffffffff8211156122265761222561205d565b5b61222f82611da6565b9050602081019050919050565b600061224f61224a8461220b565b6120bd565b90508281526020810184848401111561226b5761226a612058565b5b612276848285612109565b509392505050565b600082601f83011261229357612292612053565b5b81356122a384826020860161223c565b91505092915050565b6000806000606084860312156122c5576122c4611c9b565b5b60006122d386828701611ee8565b93505060206122e486828701611e33565b925050604084013567ffffffffffffffff81111561230557612304611ca0565b5b6123118682870161227e565b9150509250925092565b6000806040838503121561233257612331611c9b565b5b600061234085828601611ee8565b925050602061235185828601611ee8565b9150509250929050565b7f4e487b7100000000000000000000000000000000000000000000000000000000600052602260045260246000fd5b600060028204905060018216806123a257607f821691505b6020821081036123b5576123b461235b565b5b50919050565b7f4552433732313a20617070726f76616c20746f2063757272656e74206f776e6560008201527f7200000000000000000000000000000000000000000000000000000000000000602082015250565b6000612417602183611d6b565b9150612422826123bb565b604082019050919050565b600060208201905081810360008301526124468161240a565b9050919050565b7f4552433732313a20617070726f76652063616c6c6572206973206e6f7420746f60008201527f6b656e206f776e6572206f7220617070726f76656420666f7220616c6c000000602082015250565b60006124a9603d83611d6b565b91506124b48261244d565b604082019050919050565b600060208201905081810360008301526124d88161249c565b9050919050565b7f4552433732313a2063616c6c6572206973206e6f7420746f6b656e206f776e6560008201527f72206f7220617070726f76656400000000000000000000000000000000000000602082015250565b600061253b602d83611d6b565b9150612546826124df565b604082019050919050565b6000602082019050818103600083015261256a8161252e565b9050919050565b7f4552433732313a20696e76616c696420746f6b656e2049440000000000000000600082015250565b60006125a7601883611d6b565b91506125b282612571565b602082019050919050565b600060208201905081810360008301526125d68161259a565b9050919050565b7f4552433732313a2061646472657373207a65726f206973206e6f74206120766160008201527f6c6964206f776e65720000000000000000000000000000000000000000000000602082015250565b6000612639602983611d6b565b9150612644826125dd565b604082019050919050565b600060208201905081810360008301526126688161262c565b9050919050565b7f4f776e61626c653a206e6577206f776e657220697320746865207a65726f206160008201527f6464726573730000000000000000000000000000000000000000000000000000602082015250565b60006126cb602683611d6b565b91506126d68261266f565b604082019050919050565b600060208201905081810360008301526126fa816126be565b9050919050565b7f4552433732313a207472616e736665722066726f6d20696e636f72726563742060008201527f6f776e6572000000000000000000000000000000000000000000000000000000602082015250565b600061275d602583611d6b565b915061276882612701565b604082019050919050565b6000602082019050818103600083015261278c81612750565b9050919050565b7f4552433732313a207472616e7366657220746f20746865207a65726f2061646460008201527f7265737300000000000000000000000000000000000000000000000000000000602082015250565b60006127ef602483611d6b565b91506127fa82612793565b604082019050919050565b6000602082019050818103600083015261281e816127e2565b9050919050565b7f4f776e61626c653a2063616c6c6572206973206e6f7420746865206f776e6572600082015250565b600061285b602083611d6b565b915061286682612825565b602082019050919050565b6000602082019050818103600083015261288a8161284e565b9050919050565b7f4552433732313a20617070726f766520746f2063616c6c657200000000000000600082015250565b60006128c7601983611d6b565b91506128d282612891565b602082019050919050565b600060208201905081810360008301526128f6816128ba565b9050919050565b7f4552433732313a207472616e7366657220746f206e6f6e20455243373231526560008201527f63656976657220696d706c656d656e7465720000000000000000000000000000602082015250565b6000612959603283611d6b565b9150612964826128fd565b604082019050919050565b600060208201905081810360008301526129888161294c565b9050919050565b600081905092915050565b60006129a582611d60565b6129af818561298f565b93506129bf818560208601611d7c565b80840191505092915050565b60006129d7828561299a565b91506129e3828461299a565b91508190509392505050565b7f45524337323155524953746f726167653a2055524920736574206f66206e6f6e60008201527f6578697374656e7420746f6b656e000000000000000000000000000000000000602082015250565b6000612a4b602e83611d6b565b9150612a56826129ef565b604082019050919050565b60006020820190508181036000830152612a7a81612a3e565b9050919050565b60008190508160005260206000209050919050565b60006020601f8301049050919050565b600082821b905092915050565b600060088302612ae37fffffffffffffffffffffffffffffffffffffffffffffffffffffffffffffffff82612aa6565b612aed8683612aa6565b95508019841693508086168417925050509392505050565b6000819050919050565b6000612b2a612b25612b2084611e12565b612b05565b611e12565b9050919050565b6000819050919050565b612b4483612b0f565b612b58612b5082612b31565b848454612ab3565b825550505050565b600090565b612b6d612b60565b612b78818484612b3b565b505050565b5b81811015612b9c57612b91600082612b65565b600181019050612b7e565b5050565b601f821115612be157612bb281612a81565b612bbb84612a96565b81016020851015612bca578190505b612bde612bd685612a96565b830182612b7d565b50505b505050565b600082821c905092915050565b6000612c0460001984600802612be6565b1980831691505092915050565b6000612c1d8383612bf3565b9150826002028217905092915050565b612c3682611d60565b67ffffffffffffffff811115612c4f57612c4e61205d565b5b612c59825461238a565b612c64828285612ba0565b600060209050601f831160018114612c975760008415612c85578287015190505b612c8f8582612c11565b865550612cf7565b601f198416612ca586612a81565b60005b82811015612ccd57848901518255600182019150602085019450602081019050612ca8565b86831015612cea5784890151612ce6601f891682612bf3565b8355505b6001600288020188555050505b505050505050565b7f4e487b7100000000000000000000000000000000000000000000000000000000600052601160045260246000fd5b6000612d3982611e12565b9150612d4483611e12565b9250828203905081811115612d5c57612d5b612cff565b5b92915050565b6000612d6d82611e12565b9150612d7883611e12565b9250828201905080821115612d9057612d8f612cff565b5b92915050565b600081519050919050565b600082825260208201905092915050565b6000612dbd82612d96565b612dc78185612da1565b9350612dd7818560208601611d7c565b612de081611da6565b840191505092915050565b6000608082019050612e006000830187611ea7565b612e0d6020830186611ea7565b612e1a6040830185611fbd565b8181036060830152612e2c8184612db2565b905095945050505050565b600081519050612e4681611cd1565b92915050565b600060208284031215612e6257612e61611c9b565b5b6000612e7084828501612e37565b91505092915050565b7f4e487b7100000000000000000000000000000000000000000000000000000000600052601260045260246000fd5b7f4552433732313a206d696e7420746f20746865207a65726f2061646472657373600082015250565b6000612ede602083611d6b565b9150612ee982612ea8565b602082019050919050565b60006020820190508181036000830152612f0d81612ed1565b9050919050565b7f4552433732313a20746f6b656e20616c7265616479206d696e74656400000000600082015250565b6000612f4a601c83611d6b565b9150612f5582612f14565b602082019050919050565b60006020820190508181036000830152612f7981612f3d565b905091905056fea2646970667358221220fdb96ea6a972a438cad5e3ec7f7cdd88ce10f13e1d2c1fccd5bfa21fb76df4aa64736f6c6343000811003368747470733a2f2f7261772e67697468756275736572636f6e74656e742e636f6d2f5073696f6e79632f6f76657266756e6465642f6d61737465722f636f6e74726163742f6e66745f6d657461646174612e6a736f6e",
  "linkReferences": {},
  "deployedLinkReferences": {}
}