{
  "_format": "hh-sol-artifact-1",
  "contractName": "FundStorage",
  "sourceName": "contracts/FundStorage.sol",
  "abi": [
    {
      "inputs": [
        {
          "internalType": "uint256",
          "name": "_price",
          "type": "uint256"
        },
        {
          "internalType": "contract ERC20",
          "name": "_token",
          "type": "address"
        }
      ],
      "stateMutability": "nonpayable",
      "type": "constructor"
    },
    {
      "anonymous": false,
      "inputs": [
        {
          "indexed": true,
          "internalType": "address",
          "name": "previousOwner",
          "type": "address"
        },
        {
          "indexed": true,
          "internalType": "address",
          "name": "newOwner",
          "type": "address"
        }
      ],
      "name": "OwnershipTransferred",
      "type": "event"
    },
    {
      "inputs": [],
      "name": "BPS_DECIMAL",
      "outputs": [
        {
          "internalType": "uint256",
          "name": "",
          "type": "uint256"
        }
      ],
      "stateMutability": "view",
      "type": "function"
    },
    {
      "inputs": [
        {
          "internalType": "uint256",
          "name": "_profit",
          "type": "uint256"
        }
      ],
      "name": "addProfit",
      "outputs": [
        {
          "internalType": "bool",
          "name": "",
          "type": "bool"
        }
      ],
      "stateMutability": "nonpayable",
      "type": "function"
    },
    {
      "inputs": [],
      "name": "balance",
      "outputs": [
        {
          "internalType": "uint256",
          "name": "",
          "type": "uint256"
        }
      ],
      "stateMutability": "view",
      "type": "function"
    },
    {
      "inputs": [
        {
          "internalType": "address",
          "name": "_to",
          "type": "address"
        }
      ],
      "name": "collapse",
      "outputs": [],
      "stateMutability": "nonpayable",
      "type": "function"
    },
    {
      "inputs": [
        {
          "internalType": "address",
          "name": "_funder",
          "type": "address"
        },
        {
          "internalType": "uint256",
          "name": "_amount",
          "type": "uint256"
        }
      ],
      "name": "createFunding",
      "outputs": [],
      "stateMutability": "nonpayable",
      "type": "function"
    },
    {
      "inputs": [
        {
          "internalType": "address",
          "name": "",
          "type": "address"
        }
      ],
      "name": "fundings",
      "outputs": [
        {
          "internalType": "uint256",
          "name": "",
          "type": "uint256"
        }
      ],
      "stateMutability": "view",
      "type": "function"
    },
    {
      "inputs": [
        {
          "internalType": "address",
          "name": "_user",
          "type": "address"
        }
      ],
      "name": "getUserShare",
      "outputs": [
        {
          "internalType": "uint256",
          "name": "",
          "type": "uint256"
        }
      ],
      "stateMutability": "view",
      "type": "function"
    },
    {
      "inputs": [
        {
          "internalType": "address",
          "name": "_user",
          "type": "address"
        }
      ],
      "name": "getWithdrawableProfits",
      "outputs": [
        {
          "internalType": "uint256",
          "name": "",
          "type": "uint256"
        }
      ],
      "stateMutability": "view",
      "type": "function"
    },
    {
      "inputs": [],
      "name": "maxFunding",
      "outputs": [
        {
          "internalType": "uint256",
          "name": "",
          "type": "uint256"
        }
      ],
      "stateMutability": "view",
      "type": "function"
    },
    {
      "inputs": [],
      "name": "owner",
      "outputs": [
        {
          "internalType": "address",
          "name": "",
          "type": "address"
        }
      ],
      "stateMutability": "view",
      "type": "function"
    },
    {
      "inputs": [],
      "name": "profit",
      "outputs": [
        {
          "internalType": "uint256",
          "name": "",
          "type": "uint256"
        }
      ],
      "stateMutability": "view",
      "type": "function"
    },
    {
      "inputs": [
        {
          "internalType": "address",
          "name": "",
          "type": "address"
        }
      ],
      "name": "profitsRemoved",
      "outputs": [
        {
          "internalType": "uint256",
          "name": "",
          "type": "uint256"
        }
      ],
      "stateMutability": "view",
      "type": "function"
    },
    {
      "inputs": [],
      "name": "renounceOwnership",
      "outputs": [],
      "stateMutability": "nonpayable",
      "type": "function"
    },
    {
      "inputs": [],
      "name": "totalFunding",
      "outputs": [
        {
          "internalType": "uint256",
          "name": "",
          "type": "uint256"
        }
      ],
      "stateMutability": "view",
      "type": "function"
    },
    {
      "inputs": [
        {
          "internalType": "address",
          "name": "newOwner",
          "type": "address"
        }
      ],
      "name": "transferOwnership",
      "outputs": [],
      "stateMutability": "nonpayable",
      "type": "function"
    },
    {
      "inputs": [
        {
          "internalType": "address",
          "name": "_to",
          "type": "address"
        }
      ],
      "name": "withdrawFunds",
      "outputs": [
        {
          "internalType": "bool",
          "name": "",
          "type": "bool"
        }
      ],
      "stateMutability": "nonpayable",
      "type": "function"
    },
    {
      "inputs": [
        {
          "internalType": "address",
          "name": "_user",
          "type": "address"
        }
      ],
      "name": "withdrawProfits",
      "outputs": [],
      "stateMutability": "nonpayable",
      "type": "function"
    }
  ],
  "bytecode": "0x608060405260126004553480156200001657600080fd5b50604051620018d7380380620018d783398181016040528101906200003c919062000231565b6200005c62000050620000ac60201b60201c565b620000b460201b60201c565b8160028190555080600660006101000a81548173ffffffffffffffffffffffffffffffffffffffff021916908373ffffffffffffffffffffffffffffffffffffffff160217905550505062000278565b600033905090565b60008060009054906101000a900473ffffffffffffffffffffffffffffffffffffffff169050816000806101000a81548173ffffffffffffffffffffffffffffffffffffffff021916908373ffffffffffffffffffffffffffffffffffffffff1602179055508173ffffffffffffffffffffffffffffffffffffffff168173ffffffffffffffffffffffffffffffffffffffff167f8be0079c531659141344cd1fd0a4f28419497f9722a3daafe3b4186f6b6457e060405160405180910390a35050565b600080fd5b6000819050919050565b62000192816200017d565b81146200019e57600080fd5b50565b600081519050620001b28162000187565b92915050565b600073ffffffffffffffffffffffffffffffffffffffff82169050919050565b6000620001e582620001b8565b9050919050565b6000620001f982620001d8565b9050919050565b6200020b81620001ec565b81146200021757600080fd5b50565b6000815190506200022b8162000200565b92915050565b600080604083850312156200024b576200024a62000178565b5b60006200025b85828601620001a1565b92505060206200026e858286016200021a565b9150509250929050565b61164f80620002886000396000f3fe608060405234801561001057600080fd5b506004361061010a5760003560e01c80638da5cb5b116100a2578063e680f77011610071578063e680f770146102a7578063e7fbf87c146102c3578063f00b03d2146102f3578063f2fde38b14610323578063fe47a8a71461033f5761010a565b80638da5cb5b1461021f578063b69ef8a81461023d578063bbbaee4c1461025b578063bfc02cf21461028b5761010a565b806368742da6116100de57806368742da614610185578063715018a6146101b557806382729035146101bf5780638d2868d8146101ef5761010a565b8062362a771461010f5780632f03519d1461012b578063596b975a1461014957806366d16cc314610167575b600080fd5b61012960048036038101906101249190610df3565b61035d565b005b6101336105bd565b6040516101409190610e39565b60405180910390f35b6101516105c3565b60405161015e9190610e39565b60405180910390f35b61016f6105c9565b60405161017c9190610e39565b60405180910390f35b61019f600480360381019061019a9190610df3565b6105cf565b6040516101ac9190610e6f565b60405180910390f35b6101bd6107a8565b005b6101d960048036038101906101d49190610df3565b6107bc565b6040516101e69190610e39565b60405180910390f35b61020960048036038101906102049190610eb6565b610855565b6040516102169190610e6f565b60405180910390f35b610227610881565b6040516102349190610ef2565b60405180910390f35b6102456108aa565b6040516102529190610e39565b60405180910390f35b61027560048036038101906102709190610df3565b61094d565b6040516102829190610e39565b60405180910390f35b6102a560048036038101906102a09190610f0d565b61095f565b005b6102c160048036038101906102bc9190610df3565b6109d2565b005b6102dd60048036038101906102d89190610df3565b610b19565b6040516102ea9190610e39565b60405180910390f35b61030d60048036038101906103089190610df3565b610b31565b60405161031a9190610e39565b60405180910390f35b61033d60048036038101906103389190610df3565b610b49565b005b610347610bcc565b6040516103549190610e39565b60405180910390f35b610365610bd2565b6000600554116103aa576040517f08c379a00000000000000000000000000000000000000000000000000000000081526004016103a190610faa565b60405180910390fd5b6000600760008373ffffffffffffffffffffffffffffffffffffffff1673ffffffffffffffffffffffffffffffffffffffff1681526020019081526020016000205490506000816005546103fe9190610ff9565b905060008111610443576040517f08c379a000000000000000000000000000000000000000000000000000000000815260040161043a9061109f565b60405180910390fd5b600554600760008573ffffffffffffffffffffffffffffffffffffffff1673ffffffffffffffffffffffffffffffffffffffff168152602001908152602001600020600082825461049491906110bf565b9250508190555060006104a684610c50565b90506000600454600a6104b99190611226565b83836104c59190611271565b6104cf91906112e2565b90506000600660009054906101000a900473ffffffffffffffffffffffffffffffffffffffff1673ffffffffffffffffffffffffffffffffffffffff1663a9059cbb87846040518363ffffffff1660e01b8152600401610530929190611313565b6020604051808303816000875af115801561054f573d6000803e3d6000fd5b505050506040513d601f19601f820116820180604052508101906105739190611368565b9050806105b5576040517f08c379a00000000000000000000000000000000000000000000000000000000081526004016105ac906113e1565b60405180910390fd5b505050505050565b60045481565b60025481565b60055481565b60006105d9610bd2565b6003546002541015610620576040517f08c379a00000000000000000000000000000000000000000000000000000000081526004016106179061144d565b60405180910390fd5b6000600660009054906101000a900473ffffffffffffffffffffffffffffffffffffffff1673ffffffffffffffffffffffffffffffffffffffff1663a9059cbb84600660009054906101000a900473ffffffffffffffffffffffffffffffffffffffff1673ffffffffffffffffffffffffffffffffffffffff166370a08231306040518263ffffffff1660e01b81526004016106bc9190610ef2565b602060405180830381865afa1580156106d9573d6000803e3d6000fd5b505050506040513d601f19601f820116820180604052508101906106fd9190611482565b6040518363ffffffff1660e01b815260040161071a929190611313565b6020604051808303816000875af1158015610739573d6000803e3d6000fd5b505050506040513d601f19601f8201168201806040525081019061075d9190611368565b90508061079f576040517f08c379a0000000000000000000000000000000000000000000000000000000008152600401610796906114fb565b60405180910390fd5b80915050919050565b6107b0610bd2565b6107ba6000610cc4565b565b600080600760008473ffffffffffffffffffffffffffffffffffffffff1673ffffffffffffffffffffffffffffffffffffffff1681526020019081526020016000205490506000816005546108119190610ff9565b9050600061081e85610c50565b90506000600454600a6108319190611226565b838361083d9190611271565b61084791906112e2565b905080945050505050919050565b600061085f610bd2565b816005600082825461087191906110bf565b9250508190555060019050919050565b60008060009054906101000a900473ffffffffffffffffffffffffffffffffffffffff16905090565b6000600660009054906101000a900473ffffffffffffffffffffffffffffffffffffffff1673ffffffffffffffffffffffffffffffffffffffff166370a08231306040518263ffffffff1660e01b81526004016109079190610ef2565b602060405180830381865afa158015610924573d6000803e3d6000fd5b505050506040513d601f19601f820116820180604052508101906109489190611482565b905090565b600061095882610c50565b9050919050565b806003600082825461097191906110bf565b9250508190555080600160008473ffffffffffffffffffffffffffffffffffffffff1673ffffffffffffffffffffffffffffffffffffffff16815260200190815260200160002060008282546109c791906110bf565b925050819055505050565b6109da610bd2565b600660009054906101000a900473ffffffffffffffffffffffffffffffffffffffff1673ffffffffffffffffffffffffffffffffffffffff1663a9059cbb82600660009054906101000a900473ffffffffffffffffffffffffffffffffffffffff1673ffffffffffffffffffffffffffffffffffffffff166370a08231306040518263ffffffff1660e01b8152600401610a749190610ef2565b602060405180830381865afa158015610a91573d6000803e3d6000fd5b505050506040513d601f19601f82011682018060405250810190610ab59190611482565b6040518363ffffffff1660e01b8152600401610ad2929190611313565b6020604051808303816000875af1158015610af1573d6000803e3d6000fd5b505050506040513d601f19601f82011682018060405250810190610b159190611368565b5050565b60076020528060005260406000206000915090505481565b60016020528060005260406000206000915090505481565b610b51610bd2565b600073ffffffffffffffffffffffffffffffffffffffff168173ffffffffffffffffffffffffffffffffffffffff1603610bc0576040517f08c379a0000000000000000000000000000000000000000000000000000000008152600401610bb79061158d565b60405180910390fd5b610bc981610cc4565b50565b60035481565b610bda610d88565b73ffffffffffffffffffffffffffffffffffffffff16610bf8610881565b73ffffffffffffffffffffffffffffffffffffffff1614610c4e576040517f08c379a0000000000000000000000000000000000000000000000000000000008152600401610c45906115f9565b60405180910390fd5b565b600080600160008473ffffffffffffffffffffffffffffffffffffffff1673ffffffffffffffffffffffffffffffffffffffff168152602001908152602001600020549050600254600454600a610ca79190611226565b82610cb29190611271565b610cbc91906112e2565b915050919050565b60008060009054906101000a900473ffffffffffffffffffffffffffffffffffffffff169050816000806101000a81548173ffffffffffffffffffffffffffffffffffffffff021916908373ffffffffffffffffffffffffffffffffffffffff1602179055508173ffffffffffffffffffffffffffffffffffffffff168173ffffffffffffffffffffffffffffffffffffffff167f8be0079c531659141344cd1fd0a4f28419497f9722a3daafe3b4186f6b6457e060405160405180910390a35050565b600033905090565b600080fd5b600073ffffffffffffffffffffffffffffffffffffffff82169050919050565b6000610dc082610d95565b9050919050565b610dd081610db5565b8114610ddb57600080fd5b50565b600081359050610ded81610dc7565b92915050565b600060208284031215610e0957610e08610d90565b5b6000610e1784828501610dde565b91505092915050565b6000819050919050565b610e3381610e20565b82525050565b6000602082019050610e4e6000830184610e2a565b92915050565b60008115159050919050565b610e6981610e54565b82525050565b6000602082019050610e846000830184610e60565b92915050565b610e9381610e20565b8114610e9e57600080fd5b50565b600081359050610eb081610e8a565b92915050565b600060208284031215610ecc57610ecb610d90565b5b6000610eda84828501610ea1565b91505092915050565b610eec81610db5565b82525050565b6000602082019050610f076000830184610ee3565b92915050565b60008060408385031215610f2457610f23610d90565b5b6000610f3285828601610dde565b9250506020610f4385828601610ea1565b9150509250929050565b600082825260208201905092915050565b7f4e6f2070726f6669747320796574000000000000000000000000000000000000600082015250565b6000610f94600e83610f4d565b9150610f9f82610f5e565b602082019050919050565b60006020820190508181036000830152610fc381610f87565b9050919050565b7f4e487b7100000000000000000000000000000000000000000000000000000000600052601160045260246000fd5b600061100482610e20565b915061100f83610e20565b925082820390508181111561102757611026610fca565b5b92915050565b7f596f7520646f6e2774206861766520616e20616c6c6f63617465642070726f6660008201527f6974000000000000000000000000000000000000000000000000000000000000602082015250565b6000611089602283610f4d565b91506110948261102d565b604082019050919050565b600060208201905081810360008301526110b88161107c565b9050919050565b60006110ca82610e20565b91506110d583610e20565b92508282019050808211156110ed576110ec610fca565b5b92915050565b60008160011c9050919050565b6000808291508390505b600185111561114a5780860481111561112657611125610fca565b5b60018516156111355780820291505b8081029050611143856110f3565b945061110a565b94509492505050565b600082611163576001905061121f565b81611171576000905061121f565b81600181146111875760028114611191576111c0565b600191505061121f565b60ff8411156111a3576111a2610fca565b5b8360020a9150848211156111ba576111b9610fca565b5b5061121f565b5060208310610133831016604e8410600b84101617156111f55782820a9050838111156111f0576111ef610fca565b5b61121f565b6112028484846001611100565b9250905081840481111561121957611218610fca565b5b81810290505b9392505050565b600061123182610e20565b915061123c83610e20565b92506112697fffffffffffffffffffffffffffffffffffffffffffffffffffffffffffffffff8484611153565b905092915050565b600061127c82610e20565b915061128783610e20565b925082820261129581610e20565b915082820484148315176112ac576112ab610fca565b5b5092915050565b7f4e487b7100000000000000000000000000000000000000000000000000000000600052601260045260246000fd5b60006112ed82610e20565b91506112f883610e20565b925082611308576113076112b3565b5b828204905092915050565b60006040820190506113286000830185610ee3565b6113356020830184610e2a565b9392505050565b61134581610e54565b811461135057600080fd5b50565b6000815190506113628161133c565b92915050565b60006020828403121561137e5761137d610d90565b5b600061138c84828501611353565b91505092915050565b7f5769746864726177616c2066616c696564000000000000000000000000000000600082015250565b60006113cb601183610f4d565b91506113d682611395565b602082019050919050565b600060208201905081810360008301526113fa816113be565b9050919050565b7f46756e64696e67206973206e6f7420636f6d706c657465000000000000000000600082015250565b6000611437601783610f4d565b915061144282611401565b602082019050919050565b600060208201905081810360008301526114668161142a565b9050919050565b60008151905061147c81610e8a565b92915050565b60006020828403121561149857611497610d90565b5b60006114a68482850161146d565b91505092915050565b7f5769746864726177616c2077617320756e7375636365737366756c0000000000600082015250565b60006114e5601b83610f4d565b91506114f0826114af565b602082019050919050565b60006020820190508181036000830152611514816114d8565b9050919050565b7f4f776e61626c653a206e6577206f776e657220697320746865207a65726f206160008201527f6464726573730000000000000000000000000000000000000000000000000000602082015250565b6000611577602683610f4d565b91506115828261151b565b604082019050919050565b600060208201905081810360008301526115a68161156a565b9050919050565b7f4f776e61626c653a2063616c6c6572206973206e6f7420746865206f776e6572600082015250565b60006115e3602083610f4d565b91506115ee826115ad565b602082019050919050565b60006020820190508181036000830152611612816115d6565b905091905056fea2646970667358221220bc9c656ab1040574ad1ca4fc1d381d83e5ffdd372352b060b47db0b9b829cce964736f6c63430008110033",
  "linkReferences": {},
  "deployedLinkReferences": {}
}