{
  "_format": "hh-sol-artifact-1",
  "contractName": "PropertyStorage",
  "sourceName": "contracts/PropertyStorage.sol",
  "abi": [
    {
      "anonymous": false,
      "inputs": [
        {
          "indexed": true,
          "internalType": "address",
          "name": "previousOwner",
          "type": "address"
        },
        {
          "indexed": true,
          "internalType": "address",
          "name": "newOwner",
          "type": "address"
        }
      ],
      "name": "OwnershipTransferred",
      "type": "event"
    },
    {
      "anonymous": false,
      "inputs": [
        {
          "indexed": false,
          "internalType": "uint256",
          "name": "_id",
          "type": "uint256"
        }
      ],
      "name": "PropertyAdded",
      "type": "event"
    },
    {
      "anonymous": false,
      "inputs": [
        {
          "indexed": false,
          "internalType": "uint256",
          "name": "_id",
          "type": "uint256"
        }
      ],
      "name": "PropertyRemoved",
      "type": "event"
    },
    {
      "inputs": [
        {
          "internalType": "string",
          "name": "_name",
          "type": "string"
        },
        {
          "internalType": "uint256",
          "name": "_price",
          "type": "uint256"
        },
        {
          "internalType": "string[]",
          "name": "_images",
          "type": "string[]"
        },
        {
          "internalType": "string",
          "name": "_location",
          "type": "string"
        },
        {
          "internalType": "address",
          "name": "_owner",
          "type": "address"
        },
        {
          "internalType": "contract FundStorage",
          "name": "_fundStorage",
          "type": "address"
        }
      ],
      "name": "createNewProperty",
      "outputs": [
        {
          "components": [
            {
              "internalType": "uint256",
              "name": "id",
              "type": "uint256"
            },
            {
              "internalType": "string",
              "name": "name",
              "type": "string"
            },
            {
              "internalType": "address",
              "name": "owner",
              "type": "address"
            },
            {
              "internalType": "uint256",
              "name": "price",
              "type": "uint256"
            },
            {
              "internalType": "uint256",
              "name": "funds",
              "type": "uint256"
            },
            {
              "internalType": "string[]",
              "name": "images",
              "type": "string[]"
            },
            {
              "internalType": "contract FundStorage",
              "name": "fundStorage",
              "type": "address"
            },
            {
              "internalType": "enum PropertyStatus",
              "name": "status",
              "type": "uint8"
            },
            {
              "internalType": "bool",
              "name": "verified",
              "type": "bool"
            },
            {
              "internalType": "string",
              "name": "location",
              "type": "string"
            }
          ],
          "internalType": "struct Property",
          "name": "",
          "type": "tuple"
        }
      ],
      "stateMutability": "nonpayable",
      "type": "function"
    },
    {
      "inputs": [
        {
          "internalType": "uint256",
          "name": "_property",
          "type": "uint256"
        }
      ],
      "name": "flagProperty",
      "outputs": [],
      "stateMutability": "nonpayable",
      "type": "function"
    },
    {
      "inputs": [
        {
          "internalType": "uint256",
          "name": "_offset",
          "type": "uint256"
        },
        {
          "internalType": "uint256",
          "name": "_limit",
          "type": "uint256"
        }
      ],
      "name": "getProperties",
      "outputs": [
        {
          "components": [
            {
              "internalType": "uint256",
              "name": "id",
              "type": "uint256"
            },
            {
              "internalType": "string",
              "name": "name",
              "type": "string"
            },
            {
              "internalType": "address",
              "name": "owner",
              "type": "address"
            },
            {
              "internalType": "uint256",
              "name": "price",
              "type": "uint256"
            },
            {
              "internalType": "uint256",
              "name": "funds",
              "type": "uint256"
            },
            {
              "internalType": "string[]",
              "name": "images",
              "type": "string[]"
            },
            {
              "internalType": "contract FundStorage",
              "name": "fundStorage",
              "type": "address"
            },
            {
              "internalType": "enum PropertyStatus",
              "name": "status",
              "type": "uint8"
            },
            {
              "internalType": "bool",
              "name": "verified",
              "type": "bool"
            },
            {
              "internalType": "string",
              "name": "location",
              "type": "string"
            }
          ],
          "internalType": "struct Property[]",
          "name": "props",
          "type": "tuple[]"
        },
        {
          "internalType": "uint256",
          "name": "nextOffset",
          "type": "uint256"
        },
        {
          "internalType": "uint256",
          "name": "total",
          "type": "uint256"
        }
      ],
      "stateMutability": "view",
      "type": "function"
    },
    {
      "inputs": [
        {
          "internalType": "uint256",
          "name": "_property",
          "type": "uint256"
        }
      ],
      "name": "getProperty",
      "outputs": [
        {
          "components": [
            {
              "internalType": "uint256",
              "name": "id",
              "type": "uint256"
            },
            {
              "internalType": "string",
              "name": "name",
              "type": "string"
            },
            {
              "internalType": "address",
              "name": "owner",
              "type": "address"
            },
            {
              "internalType": "uint256",
              "name": "price",
              "type": "uint256"
            },
            {
              "internalType": "uint256",
              "name": "funds",
              "type": "uint256"
            },
            {
              "internalType": "string[]",
              "name": "images",
              "type": "string[]"
            },
            {
              "internalType": "contract FundStorage",
              "name": "fundStorage",
              "type": "address"
            },
            {
              "internalType": "enum PropertyStatus",
              "name": "status",
              "type": "uint8"
            },
            {
              "internalType": "bool",
              "name": "verified",
              "type": "bool"
            },
            {
              "internalType": "string",
              "name": "location",
              "type": "string"
            }
          ],
          "internalType": "struct Property",
          "name": "",
          "type": "tuple"
        }
      ],
      "stateMutability": "view",
      "type": "function"
    },
    {
      "inputs": [],
      "name": "owner",
      "outputs": [
        {
          "internalType": "address",
          "name": "",
          "type": "address"
        }
      ],
      "stateMutability": "view",
      "type": "function"
    },
    {
      "inputs": [
        {
          "internalType": "uint256",
          "name": "_property",
          "type": "uint256"
        }
      ],
      "name": "removeProperty",
      "outputs": [],
      "stateMutability": "nonpayable",
      "type": "function"
    },
    {
      "inputs": [],
      "name": "renounceOwnership",
      "outputs": [],
      "stateMutability": "nonpayable",
      "type": "function"
    },
    {
      "inputs": [
        {
          "internalType": "uint256",
          "name": "_property",
          "type": "uint256"
        },
        {
          "components": [
            {
              "internalType": "uint256",
              "name": "id",
              "type": "uint256"
            },
            {
              "internalType": "string",
              "name": "name",
              "type": "string"
            },
            {
              "internalType": "address",
              "name": "owner",
              "type": "address"
            },
            {
              "internalType": "uint256",
              "name": "price",
              "type": "uint256"
            },
            {
              "internalType": "uint256",
              "name": "funds",
              "type": "uint256"
            },
            {
              "internalType": "string[]",
              "name": "images",
              "type": "string[]"
            },
            {
              "internalType": "contract FundStorage",
              "name": "fundStorage",
              "type": "address"
            },
            {
              "internalType": "enum PropertyStatus",
              "name": "status",
              "type": "uint8"
            },
            {
              "internalType": "bool",
              "name": "verified",
              "type": "bool"
            },
            {
              "internalType": "string",
              "name": "location",
              "type": "string"
            }
          ],
          "internalType": "struct Property",
          "name": "value",
          "type": "tuple"
        }
      ],
      "name": "setProperty",
      "outputs": [],
      "stateMutability": "nonpayable",
      "type": "function"
    },
    {
      "inputs": [
        {
          "internalType": "address",
          "name": "newOwner",
          "type": "address"
        }
      ],
      "name": "transferOwnership",
      "outputs": [],
      "stateMutability": "nonpayable",
      "type": "function"
    },
    {
      "inputs": [
        {
          "internalType": "uint256",
          "name": "_property",
          "type": "uint256"
        }
      ],
      "name": "verify",
      "outputs": [],
      "stateMutability": "nonpayable",
      "type": "function"
    }
  ],
  "bytecode": "0x60806040523480156200001157600080fd5b5062000032620000266200003860201b60201c565b6200004060201b60201c565b62000104565b600033905090565b60008060009054906101000a900473ffffffffffffffffffffffffffffffffffffffff169050816000806101000a81548173ffffffffffffffffffffffffffffffffffffffff021916908373ffffffffffffffffffffffffffffffffffffffff1602179055508173ffffffffffffffffffffffffffffffffffffffff168173ffffffffffffffffffffffffffffffffffffffff167f8be0079c531659141344cd1fd0a4f28419497f9722a3daafe3b4186f6b6457e060405160405180910390a35050565b61355b80620001146000396000f3fe608060405234801561001057600080fd5b506004361061009e5760003560e01c80638da5cb5b116100665780638da5cb5b14610131578063b16aa4701461014f578063bc43d06f14610181578063f2fde38b1461019d578063fa84ede5146101b95761009e565b806332665ffb146100a357806364d2e4dc146100d3578063715018a6146100ef57806376d7ee3d146100f95780638753367f14610115575b600080fd5b6100bd60048036038101906100b891906119ab565b6101e9565b6040516100ca9190611d53565b60405180910390f35b6100ed60048036038101906100e891906119ab565b61058a565b005b6100f761062a565b005b610113600480360381019061010e9190611d9a565b61063e565b005b61012f600480360381019061012a91906119ab565b6106c3565b005b610139610752565b6040516101469190611e05565b60405180910390f35b61016960048036038101906101649190611e20565b61077b565b60405161017893929190612019565b60405180910390f35b61019b600480360381019061019691906119ab565b610f53565b005b6101b760048036038101906101b29190612083565b6112b2565b005b6101d360048036038101906101ce91906121a9565b611335565b6040516101e09190611d53565b60405180910390f35b6101f1611776565b6001805490508210610238576040517f08c379a000000000000000000000000000000000000000000000000000000000815260040161022f906122f5565b60405180910390fd5b6001828154811061024c5761024b612315565b5b9060005260206000209060080201604051806101400160405290816000820154815260200160018201805461028090612373565b80601f01602080910402602001604051908101604052809291908181526020018280546102ac90612373565b80156102f95780601f106102ce576101008083540402835291602001916102f9565b820191906000526020600020905b8154815290600101906020018083116102dc57829003601f168201915b505050505081526020016002820160009054906101000a900473ffffffffffffffffffffffffffffffffffffffff1673ffffffffffffffffffffffffffffffffffffffff1673ffffffffffffffffffffffffffffffffffffffff168152602001600382015481526020016004820154815260200160058201805480602002602001604051908101604052809291908181526020016000905b8282101561043d5783829060005260206000200180546103b090612373565b80601f01602080910402602001604051908101604052809291908181526020018280546103dc90612373565b80156104295780601f106103fe57610100808354040283529160200191610429565b820191906000526020600020905b81548152906001019060200180831161040c57829003601f168201915b505050505081526020019060010190610391565b5050505081526020016006820160009054906101000a900473ffffffffffffffffffffffffffffffffffffffff1673ffffffffffffffffffffffffffffffffffffffff1673ffffffffffffffffffffffffffffffffffffffff1681526020016006820160149054906101000a900460ff1660048111156104c0576104bf611bd9565b5b60048111156104d2576104d1611bd9565b5b81526020016006820160159054906101000a900460ff1615151515815260200160078201805461050190612373565b80601f016020809104026020016040519081016040528092919081815260200182805461052d90612373565b801561057a5780601f1061054f5761010080835404028352916020019161057a565b820191906000526020600020905b81548152906001019060200180831161055d57829003601f168201915b5050505050815250509050919050565b61059261162c565b60018054905081106105d9576040517f08c379a00000000000000000000000000000000000000000000000000000000081526004016105d0906122f5565b60405180910390fd5b6002600182815481106105ef576105ee612315565b5b906000526020600020906008020160060160146101000a81548160ff0219169083600481111561062257610621611bd9565b5b021790555050565b61063261162c565b61063c60006116aa565b565b61064661162c565b600180549050821061068d576040517f08c379a0000000000000000000000000000000000000000000000000000000008152600401610684906122f5565b60405180910390fd5b80600183815481106106a2576106a1612315565b5b906000526020600020906008020181816106bc9190612f1a565b9050505050565b6106cb61162c565b6001805490508110610712576040517f08c379a0000000000000000000000000000000000000000000000000000000008152600401610709906122f5565b60405180910390fd5b600180828154811061072757610726612315565b5b906000526020600020906008020160060160156101000a81548160ff02191690831515021790555050565b60008060009054906101000a900473ffffffffffffffffffffffffffffffffffffffff16905090565b6060600080600060018054905090506000850361079757600194505b85816107a39190612f28565b8511156107b95785816107b69190612f28565b94505b6000851015610b4a57600160008082805480602002602001604051908101604052809291908181526020016000905b82821015610b385783829060005260206000209060080201604051806101400160405290816000820154815260200160018201805461082690612373565b80601f016020809104026020016040519081016040528092919081815260200182805461085290612373565b801561089f5780601f106108745761010080835404028352916020019161089f565b820191906000526020600020905b81548152906001019060200180831161088257829003601f168201915b505050505081526020016002820160009054906101000a900473ffffffffffffffffffffffffffffffffffffffff1673ffffffffffffffffffffffffffffffffffffffff1673ffffffffffffffffffffffffffffffffffffffff168152602001600382015481526020016004820154815260200160058201805480602002602001604051908101604052809291908181526020016000905b828210156109e357838290600052602060002001805461095690612373565b80601f016020809104026020016040519081016040528092919081815260200182805461098290612373565b80156109cf5780601f106109a4576101008083540402835291602001916109cf565b820191906000526020600020905b8154815290600101906020018083116109b257829003601f168201915b505050505081526020019060010190610937565b5050505081526020016006820160009054906101000a900473ffffffffffffffffffffffffffffffffffffffff1673ffffffffffffffffffffffffffffffffffffffff1673ffffffffffffffffffffffffffffffffffffffff1681526020016006820160149054906101000a900460ff166004811115610a6657610a65611bd9565b5b6004811115610a7857610a77611bd9565b5b81526020016006820160159054906101000a900460ff16151515158152602001600782018054610aa790612373565b80601f0160208091040260200160405190810160405280929190818152602001828054610ad390612373565b8015610b205780601f10610af557610100808354040283529160200191610b20565b820191906000526020600020905b815481529060010190602001808311610b0357829003601f168201915b505050505081525050815260200190600101906107e8565b50505050925093509350935050610f4c565b60008567ffffffffffffffff811115610b6657610b65612504565b5b604051908082528060200260200182016040528015610b9f57816020015b610b8c611776565b815260200190600190039081610b845790505b50905060005b86811015610f345760018189610bbb9190612f5c565b81548110610bcc57610bcb612315565b5b90600052602060002090600802016040518061014001604052908160008201548152602001600182018054610c0090612373565b80601f0160208091040260200160405190810160405280929190818152602001828054610c2c90612373565b8015610c795780601f10610c4e57610100808354040283529160200191610c79565b820191906000526020600020905b815481529060010190602001808311610c5c57829003601f168201915b505050505081526020016002820160009054906101000a900473ffffffffffffffffffffffffffffffffffffffff1673ffffffffffffffffffffffffffffffffffffffff1673ffffffffffffffffffffffffffffffffffffffff168152602001600382015481526020016004820154815260200160058201805480602002602001604051908101604052809291908181526020016000905b82821015610dbd578382906000526020600020018054610d3090612373565b80601f0160208091040260200160405190810160405280929190818152602001828054610d5c90612373565b8015610da95780601f10610d7e57610100808354040283529160200191610da9565b820191906000526020600020905b815481529060010190602001808311610d8c57829003601f168201915b505050505081526020019060010190610d11565b5050505081526020016006820160009054906101000a900473ffffffffffffffffffffffffffffffffffffffff1673ffffffffffffffffffffffffffffffffffffffff1673ffffffffffffffffffffffffffffffffffffffff1681526020016006820160149054906101000a900460ff166004811115610e4057610e3f611bd9565b5b6004811115610e5257610e51611bd9565b5b81526020016006820160159054906101000a900460ff16151515158152602001600782018054610e8190612373565b80601f0160208091040260200160405190810160405280929190818152602001828054610ead90612373565b8015610efa5780601f10610ecf57610100808354040283529160200191610efa565b820191906000526020600020905b815481529060010190602001808311610edd57829003601f168201915b505050505081525050828281518110610f1657610f15612315565b5b60200260200101819052508080610f2c90612f90565b915050610ba5565b50808688610f429190612f5c565b8394509450945050505b9250925092565b610f5b61162c565b6001805490508110610fa2576040517f08c379a0000000000000000000000000000000000000000000000000000000008152600401610f9990613024565b60405180910390fd5b6001808080549050610fb49190612f28565b81548110610fc557610fc4612315565b5b906000526020600020906008020160018281548110610fe757610fe6612315565b5b90600052602060002090600802016000820154816000015560018201816001019081611013919061305a565b506002820160009054906101000a900473ffffffffffffffffffffffffffffffffffffffff168160020160006101000a81548173ffffffffffffffffffffffffffffffffffffffff021916908373ffffffffffffffffffffffffffffffffffffffff160217905550600382015481600301556004820154816004015560058201816005019080546110a5929190611809565b506006820160009054906101000a900473ffffffffffffffffffffffffffffffffffffffff168160060160006101000a81548173ffffffffffffffffffffffffffffffffffffffff021916908373ffffffffffffffffffffffffffffffffffffffff1602179055506006820160149054906101000a900460ff168160060160146101000a81548160ff0219169083600481111561114557611144611bd9565b5b02179055506006820160159054906101000a900460ff168160060160156101000a81548160ff0219169083151502179055506007820181600701908161118b919061305a565b5090505060018054806111a1576111a0613142565b5b60019003818190600052602060002090600802016000808201600090556001820160006111ce9190611866565b6002820160006101000a81549073ffffffffffffffffffffffffffffffffffffffff02191690556003820160009055600482016000905560058201600061121591906118a6565b6006820160006101000a81549073ffffffffffffffffffffffffffffffffffffffff02191690556006820160146101000a81549060ff02191690556006820160156101000a81549060ff02191690556007820160006112749190611866565b505090557f586b7d6bbe3535c99fbb4b183ce687d76307b7b4cb5a6a11e32ce06199d811fc816040516112a79190613171565b60405180910390a150565b6112ba61162c565b600073ffffffffffffffffffffffffffffffffffffffff168173ffffffffffffffffffffffffffffffffffffffff1603611329576040517f08c379a0000000000000000000000000000000000000000000000000000000008152600401611320906131fe565b60405180910390fd5b611332816116aa565b50565b61133d611776565b61134561162c565b600060405180610140016040528060018054905081526020018c8c8080601f016020809104026020016040519081016040528093929190818152602001838380828437600081840152601f19601f8201169050808301925050505050505081526020018573ffffffffffffffffffffffffffffffffffffffff1681526020018a8152602001600081526020018989906113de91906133d2565b81526020018473ffffffffffffffffffffffffffffffffffffffff1681526020016000600481111561141357611412611bd9565b5b815260200160011515815260200187878080601f016020809104026020016040519081016040528093929190818152602001838380828437600081840152601f19601f82011690508083019250505050505050815250905060018190806001815401808255809150506001900390600052602060002090600802016000909190919091506000820151816000015560208201518160010190816114b691906133e7565b5060408201518160020160006101000a81548173ffffffffffffffffffffffffffffffffffffffff021916908373ffffffffffffffffffffffffffffffffffffffff160217905550606082015181600301556080820151816004015560a082015181600501908051906020019061152e9291906118c7565b5060c08201518160060160006101000a81548173ffffffffffffffffffffffffffffffffffffffff021916908373ffffffffffffffffffffffffffffffffffffffff16021790555060e08201518160060160146101000a81548160ff021916908360048111156115a1576115a0611bd9565b5b02179055506101008201518160060160156101000a81548160ff0219169083151502179055506101208201518160070190816115dd91906133e7565b5050507fc77f078818db2b0567d4f92d1c243a9d3d795f6e8c48f72ad792bc1629f426a181600001516040516116139190613171565b60405180910390a1809150509998505050505050505050565b61163461176e565b73ffffffffffffffffffffffffffffffffffffffff16611652610752565b73ffffffffffffffffffffffffffffffffffffffff16146116a8576040517f08c379a000000000000000000000000000000000000000000000000000000000815260040161169f90613505565b60405180910390fd5b565b60008060009054906101000a900473ffffffffffffffffffffffffffffffffffffffff169050816000806101000a81548173ffffffffffffffffffffffffffffffffffffffff021916908373ffffffffffffffffffffffffffffffffffffffff1602179055508173ffffffffffffffffffffffffffffffffffffffff168173ffffffffffffffffffffffffffffffffffffffff167f8be0079c531659141344cd1fd0a4f28419497f9722a3daafe3b4186f6b6457e060405160405180910390a35050565b600033905090565b6040518061014001604052806000815260200160608152602001600073ffffffffffffffffffffffffffffffffffffffff168152602001600081526020016000815260200160608152602001600073ffffffffffffffffffffffffffffffffffffffff168152602001600060048111156117f3576117f2611bd9565b5b8152602001600015158152602001606081525090565b8280548282559060005260206000209081019282156118555760005260206000209182015b828111156118545782829081611844919061305a565b509160010191906001019061182e565b5b5090506118629190611920565b5090565b50805461187290612373565b6000825580601f1061188457506118a3565b601f0160209004906000526020600020908101906118a29190611944565b5b50565b50805460008255906000526020600020908101906118c49190611920565b50565b82805482825590600052602060002090810192821561190f579160200282015b8281111561190e5782518290816118fe91906133e7565b50916020019190600101906118e7565b5b50905061191c9190611920565b5090565b5b8082111561194057600081816119379190611866565b50600101611921565b5090565b5b8082111561195d576000816000905550600101611945565b5090565b6000604051905090565b600080fd5b600080fd5b6000819050919050565b61198881611975565b811461199357600080fd5b50565b6000813590506119a58161197f565b92915050565b6000602082840312156119c1576119c061196b565b5b60006119cf84828501611996565b91505092915050565b6119e181611975565b82525050565b600081519050919050565b600082825260208201905092915050565b60005b83811015611a21578082015181840152602081019050611a06565b60008484015250505050565b6000601f19601f8301169050919050565b6000611a49826119e7565b611a5381856119f2565b9350611a63818560208601611a03565b611a6c81611a2d565b840191505092915050565b600073ffffffffffffffffffffffffffffffffffffffff82169050919050565b6000611aa282611a77565b9050919050565b611ab281611a97565b82525050565b600081519050919050565b600082825260208201905092915050565b6000819050602082019050919050565b6000611af08383611a3e565b905092915050565b6000602082019050919050565b6000611b1082611ab8565b611b1a8185611ac3565b935083602082028501611b2c85611ad4565b8060005b85811015611b685784840389528151611b498582611ae4565b9450611b5483611af8565b925060208a01995050600181019050611b30565b50829750879550505050505092915050565b6000819050919050565b6000611b9f611b9a611b9584611a77565b611b7a565b611a77565b9050919050565b6000611bb182611b84565b9050919050565b6000611bc382611ba6565b9050919050565b611bd381611bb8565b82525050565b7f4e487b7100000000000000000000000000000000000000000000000000000000600052602160045260246000fd5b60058110611c1957611c18611bd9565b5b50565b6000819050611c2a82611c08565b919050565b6000611c3a82611c1c565b9050919050565b611c4a81611c2f565b82525050565b60008115159050919050565b611c6581611c50565b82525050565b600061014083016000830151611c8460008601826119d8565b5060208301518482036020860152611c9c8282611a3e565b9150506040830151611cb16040860182611aa9565b506060830151611cc460608601826119d8565b506080830151611cd760808601826119d8565b5060a083015184820360a0860152611cef8282611b05565b91505060c0830151611d0460c0860182611bca565b5060e0830151611d1760e0860182611c41565b50610100830151611d2c610100860182611c5c565b50610120830151848203610120860152611d468282611a3e565b9150508091505092915050565b60006020820190508181036000830152611d6d8184611c6b565b905092915050565b600080fd5b60006101408284031215611d9157611d90611d75565b5b81905092915050565b60008060408385031215611db157611db061196b565b5b6000611dbf85828601611996565b925050602083013567ffffffffffffffff811115611de057611ddf611970565b5b611dec85828601611d7a565b9150509250929050565b611dff81611a97565b82525050565b6000602082019050611e1a6000830184611df6565b92915050565b60008060408385031215611e3757611e3661196b565b5b6000611e4585828601611996565b9250506020611e5685828601611996565b9150509250929050565b600081519050919050565b600082825260208201905092915050565b6000819050602082019050919050565b600061014083016000830151611ea560008601826119d8565b5060208301518482036020860152611ebd8282611a3e565b9150506040830151611ed26040860182611aa9565b506060830151611ee560608601826119d8565b506080830151611ef860808601826119d8565b5060a083015184820360a0860152611f108282611b05565b91505060c0830151611f2560c0860182611bca565b5060e0830151611f3860e0860182611c41565b50610100830151611f4d610100860182611c5c565b50610120830151848203610120860152611f678282611a3e565b9150508091505092915050565b6000611f808383611e8c565b905092915050565b6000602082019050919050565b6000611fa082611e60565b611faa8185611e6b565b935083602082028501611fbc85611e7c565b8060005b85811015611ff85784840389528151611fd98582611f74565b9450611fe483611f88565b925060208a01995050600181019050611fc0565b50829750879550505050505092915050565b61201381611975565b82525050565b600060608201905081810360008301526120338186611f95565b9050612042602083018561200a565b61204f604083018461200a565b949350505050565b61206081611a97565b811461206b57600080fd5b50565b60008135905061207d81612057565b92915050565b6000602082840312156120995761209861196b565b5b60006120a78482850161206e565b91505092915050565b600080fd5b600080fd5b600080fd5b60008083601f8401126120d5576120d46120b0565b5b8235905067ffffffffffffffff8111156120f2576120f16120b5565b5b60208301915083600182028301111561210e5761210d6120ba565b5b9250929050565b60008083601f84011261212b5761212a6120b0565b5b8235905067ffffffffffffffff811115612148576121476120b5565b5b602083019150836020820283011115612164576121636120ba565b5b9250929050565b600061217682611a97565b9050919050565b6121868161216b565b811461219157600080fd5b50565b6000813590506121a38161217d565b92915050565b600080600080600080600080600060c08a8c0312156121cb576121ca61196b565b5b60008a013567ffffffffffffffff8111156121e9576121e8611970565b5b6121f58c828d016120bf565b995099505060206122088c828d01611996565b97505060408a013567ffffffffffffffff81111561222957612228611970565b5b6122358c828d01612115565b965096505060608a013567ffffffffffffffff81111561225857612257611970565b5b6122648c828d016120bf565b945094505060806122778c828d0161206e565b92505060a06122888c828d01612194565b9150509295985092959850929598565b600082825260208201905092915050565b7f546869732070726f706574727920646f6573206e6f7420657869737400000000600082015250565b60006122df601c83612298565b91506122ea826122a9565b602082019050919050565b6000602082019050818103600083015261230e816122d2565b9050919050565b7f4e487b7100000000000000000000000000000000000000000000000000000000600052603260045260246000fd5b7f4e487b7100000000000000000000000000000000000000000000000000000000600052602260045260246000fd5b6000600282049050600182168061238b57607f821691505b60208210810361239e5761239d612344565b5b50919050565b7f4e487b7100000000000000000000000000000000000000000000000000000000600052600060045260246000fd5b600081356123e08161197f565b80915050919050565b60008160001b9050919050565b60007fffffffffffffffffffffffffffffffffffffffffffffffffffffffffffffffff612422846123e9565b9350801983169250808416831791505092915050565b600061245361244e61244984611975565b611b7a565b611975565b9050919050565b6000819050919050565b61246d82612438565b6124806124798261245a565b83546123f6565b8255505050565b600080fd5b600080fd5b600080fd5b600080833560016020038436030381126124b3576124b2612487565b5b80840192508235915067ffffffffffffffff8211156124d5576124d461248c565b5b6020830192506001820236038313156124f1576124f0612491565b5b509250929050565b600082905092915050565b7f4e487b7100000000000000000000000000000000000000000000000000000000600052604160045260246000fd5b60008190508160005260206000209050919050565b60006020601f8301049050919050565b600082821b905092915050565b6000600883026125957fffffffffffffffffffffffffffffffffffffffffffffffffffffffffffffffff82612558565b61259f8683612558565b95508019841693508086168417925050509392505050565b6125c083612438565b6125d46125cc8261245a565b848454612565565b825550505050565b600090565b6125e96125dc565b6125f48184846125b7565b505050565b5b818110156126185761260d6000826125e1565b6001810190506125fa565b5050565b601f82111561265d5761262e81612533565b61263784612548565b81016020851015612646578190505b61265a61265285612548565b8301826125f9565b50505b505050565b600082821c905092915050565b600061268060001984600802612662565b1980831691505092915050565b6000612699838361266f565b9150826002028217905092915050565b6126b383836124f9565b67ffffffffffffffff8111156126cc576126cb612504565b5b6126d68254612373565b6126e182828561261c565b6000601f83116001811461271057600084156126fe578287013590505b612708858261268d565b865550612770565b601f19841661271e86612533565b60005b8281101561274657848901358255600182019150602085019450602081019050612721565b86831015612763578489013561275f601f89168261266f565b8355505b6001600288020188555050505b50505050505050565b6127848383836126a9565b505050565b6000813561279681612057565b80915050919050565b600073ffffffffffffffffffffffffffffffffffffffff6127bf846123e9565b9350801983169250808416831791505092915050565b60006127e082611ba6565b9050919050565b6000819050919050565b6127fa826127d5565b61280d612806826127e7565b835461279f565b8255505050565b6000808335600160200384360303811261283157612830612487565b5b80840192508235915067ffffffffffffffff8211156128535761285261248c565b5b60208301925060208202360383131561286f5761286e612491565b5b509250929050565b6000819050919050565b600081549050919050565b7f4e487b7100000000000000000000000000000000000000000000000000000000600052601160045260246000fd5b60008190506001806001038301049050919050565b60008190508160005260206000209050919050565b6129157fffffffffffffffffffffffffffffffffffffffffffffffffffffffffffffffff83602003600802612662565b815481168255505050565b61292981612533565b61293483825461268d565b8083556000825550505050565b602084106000811461299c57601f84116001811461296a57612963868561268d565b8355612996565b61297383612533565b61298a61297f87612548565b8201600183016125f9565b6129948785612920565b505b506129e9565b6129a582612533565b6129ae86612548565b8101601f871680156129c8576129c781600184036128e5565b5b6129dc6129d488612548565b8401836125f9565b6001886002021785555050505b5050505050565b68010000000000000000841115612a0a57612a09612504565b5b6020831060008114612a55576020851060008114612a3357612a2c868561268d565b8355612a4f565b8360ff1916935083612a4484612533565b556001866002020183555b50612a5f565b6001856002020182555b5050505050565b8054612a7181612373565b80841115612a8657612a85848284866129f0565b5b80841015612a9b57612a9a84828486612941565b5b50505050565b81811015612abf57612ab46000826125e1565b600181019050612aa1565b5050565b612ace600082612a66565b50565b60008214612ae257612ae16123a4565b5b612aeb81612ac3565b5050565b5b81811015612b0e57612b03600082612ad1565b600181019050612af0565b5050565b81831015612b4b57612b23826128bb565b612b2c846128bb565b612b35836128d0565b818101838201612b458183612aef565b50505050505b505050565b68010000000000000000821115612b6a57612b69612504565b5b612b7381612881565b828255612b81838284612b12565b505050565b600082905092915050565b612b9b8383612b86565b612ba58183612b50565b612bae83612877565b612bb7836128d0565b60005b83811015612bf057612bcc8387612496565b612bd7818386612779565b6020850194506001840193505050600181019050612bba565b50505050505050565b612c04838383612b91565b505050565b60008135612c168161217d565b80915050919050565b6000612c2a82611b84565b9050919050565b6000612c3c82612c1f565b9050919050565b6000819050919050565b612c5682612c31565b612c69612c6282612c43565b835461279f565b8255505050565b60058110612c7d57600080fd5b50565b60008135612c8d81612c70565b80915050919050565b60008160a01b9050919050565b600074ff0000000000000000000000000000000000000000612cc484612c96565b9350801983169250808416831791505092915050565b6000612ce582611c1c565b9050919050565b6000819050919050565b612cff82612cda565b612d12612d0b82612cec565b8354612ca3565b8255505050565b612d2281611c50565b8114612d2d57600080fd5b50565b60008135612d3d81612d19565b80915050919050565b60008160a81b9050919050565b600075ff000000000000000000000000000000000000000000612d7584612d46565b9350801983169250808416831791505092915050565b6000612d9682611c50565b9050919050565b6000819050919050565b612db082612d8b565b612dc3612dbc82612d9d565b8354612d53565b8255505050565b600081016000830180612ddc816123d3565b9050612de88184612464565b5050506001810160208301612dfd8185612496565b612e08818386612779565b50505050600281016040830180612e1e81612789565b9050612e2a81846127f1565b505050600381016060830180612e3f816123d3565b9050612e4b8184612464565b505050600481016080830180612e60816123d3565b9050612e6c8184612464565b5050506005810160a08301612e818185612814565b612e8c818386612bf9565b505050506006810160c0830180612ea281612c09565b9050612eae8184612c4d565b5050506006810160e0830180612ec381612c80565b9050612ecf8184612cf6565b50505060068101610100830180612ee581612d30565b9050612ef18184612da7565b505050600781016101208301612f078185612496565b612f12818386612779565b505050505050565b612f248282612dca565b5050565b6000612f3382611975565b9150612f3e83611975565b9250828203905081811115612f5657612f5561288c565b5b92915050565b6000612f6782611975565b9150612f7283611975565b9250828201905080821115612f8a57612f8961288c565b5b92915050565b6000612f9b82611975565b91507fffffffffffffffffffffffffffffffffffffffffffffffffffffffffffffffff8203612fcd57612fcc61288c565b5b600182019050919050565b7f546869732070726f706572747920646f6573206e6f7420657869737400000000600082015250565b600061300e601c83612298565b915061301982612fd8565b602082019050919050565b6000602082019050818103600083015261303d81613001565b9050919050565b60008154905061305381612373565b9050919050565b818103613068575050613140565b61307182613044565b67ffffffffffffffff81111561308a57613089612504565b5b6130948254612373565b61309f82828561261c565b6000601f8311600181146130ce57600084156130bc578287015490505b6130c6858261268d565b865550613139565b601f1984166130dc87612533565b96506130e786612533565b60005b8281101561310f578489015482556001820191506001850194506020810190506130ea565b8683101561312c5784890154613128601f89168261266f565b8355505b6001600288020188555050505b5050505050505b565b7f4e487b7100000000000000000000000000000000000000000000000000000000600052603160045260246000fd5b6000602082019050613186600083018461200a565b92915050565b7f4f776e61626c653a206e6577206f776e657220697320746865207a65726f206160008201527f6464726573730000000000000000000000000000000000000000000000000000602082015250565b60006131e8602683612298565b91506131f38261318c565b604082019050919050565b60006020820190508181036000830152613217816131db565b9050919050565b61322782611a2d565b810181811067ffffffffffffffff8211171561324657613245612504565b5b80604052505050565b6000613259611961565b9050613265828261321e565b919050565b600067ffffffffffffffff82111561328557613284612504565b5b602082029050602081019050919050565b600080fd5b600067ffffffffffffffff8211156132b6576132b5612504565b5b6132bf82611a2d565b9050602081019050919050565b82818337600083830152505050565b60006132ee6132e98461329b565b61324f565b90508281526020810184848401111561330a57613309613296565b5b6133158482856132cc565b509392505050565b600082601f830112613332576133316120b0565b5b81356133428482602086016132db565b91505092915050565b600061335e6133598461326a565b61324f565b90508083825260208201905060208402830185811115613381576133806120ba565b5b835b818110156133c857803567ffffffffffffffff8111156133a6576133a56120b0565b5b8086016133b3898261331d565b85526020850194505050602081019050613383565b5050509392505050565b60006133df36848461334b565b905092915050565b6133f0826119e7565b67ffffffffffffffff81111561340957613408612504565b5b6134138254612373565b61341e82828561261c565b600060209050601f831160018114613451576000841561343f578287015190505b613449858261268d565b8655506134b1565b601f19841661345f86612533565b60005b8281101561348757848901518255600182019150602085019450602081019050613462565b868310156134a457848901516134a0601f89168261266f565b8355505b6001600288020188555050505b505050505050565b7f4f776e61626c653a2063616c6c6572206973206e6f7420746865206f776e6572600082015250565b60006134ef602083612298565b91506134fa826134b9565b602082019050919050565b6000602082019050818103600083015261351e816134e2565b905091905056fea26469706673582212208fb87a9201fa2973da98417376f4de7720a14f458282541e046bcec05d469d7364736f6c63430008110033",
  "linkReferences": {},
  "deployedLinkReferences": {}
}