{
  "_format": "hh-sol-artifact-1",
  "contractName": "OverfundedUSD",
  "sourceName": "contracts/OUSD.sol",
  "abi": [
    {
      "inputs": [],
      "stateMutability": "nonpayable",
      "type": "constructor"
    },
    {
      "anonymous": false,
      "inputs": [
        {
          "indexed": true,
          "internalType": "address",
          "name": "owner",
          "type": "address"
        },
        {
          "indexed": true,
          "internalType": "address",
          "name": "spender",
          "type": "address"
        },
        {
          "indexed": false,
          "internalType": "uint256",
          "name": "value",
          "type": "uint256"
        }
      ],
      "name": "Approval",
      "type": "event"
    },
    {
      "anonymous": false,
      "inputs": [
        {
          "indexed": true,
          "internalType": "address",
          "name": "from",
          "type": "address"
        },
        {
          "indexed": true,
          "internalType": "address",
          "name": "to",
          "type": "address"
        },
        {
          "indexed": false,
          "internalType": "uint256",
          "name": "value",
          "type": "uint256"
        }
      ],
      "name": "Transfer",
      "type": "event"
    },
    {
      "inputs": [
        {
          "internalType": "address",
          "name": "owner",
          "type": "address"
        },
        {
          "internalType": "address",
          "name": "spender",
          "type": "address"
        }
      ],
      "name": "allowance",
      "outputs": [
        {
          "internalType": "uint256",
          "name": "",
          "type": "uint256"
        }
      ],
      "stateMutability": "view",
      "type": "function"
    },
    {
      "inputs": [
        {
          "internalType": "address",
          "name": "spender",
          "type": "address"
        },
        {
          "internalType": "uint256",
          "name": "amount",
          "type": "uint256"
        }
      ],
      "name": "approve",
      "outputs": [
        {
          "internalType": "bool",
          "name": "",
          "type": "bool"
        }
      ],
      "stateMutability": "nonpayable",
      "type": "function"
    },
    {
      "inputs": [
        {
          "internalType": "address",
          "name": "account",
          "type": "address"
        }
      ],
      "name": "balanceOf",
      "outputs": [
        {
          "internalType": "uint256",
          "name": "",
          "type": "uint256"
        }
      ],
      "stateMutability": "view",
      "type": "function"
    },
    {
      "inputs": [],
      "name": "decimals",
      "outputs": [
        {
          "internalType": "uint8",
          "name": "",
          "type": "uint8"
        }
      ],
      "stateMutability": "view",
      "type": "function"
    },
    {
      "inputs": [
        {
          "internalType": "address",
          "name": "spender",
          "type": "address"
        },
        {
          "internalType": "uint256",
          "name": "subtractedValue",
          "type": "uint256"
        }
      ],
      "name": "decreaseAllowance",
      "outputs": [
        {
          "internalType": "bool",
          "name": "",
          "type": "bool"
        }
      ],
      "stateMutability": "nonpayable",
      "type": "function"
    },
    {
      "inputs": [],
      "name": "icon",
      "outputs": [
        {
          "internalType": "string",
          "name": "",
          "type": "string"
        }
      ],
      "stateMutability": "view",
      "type": "function"
    },
    {
      "inputs": [
        {
          "internalType": "address",
          "name": "spender",
          "type": "address"
        },
        {
          "internalType": "uint256",
          "name": "addedValue",
          "type": "uint256"
        }
      ],
      "name": "increaseAllowance",
      "outputs": [
        {
          "internalType": "bool",
          "name": "",
          "type": "bool"
        }
      ],
      "stateMutability": "nonpayable",
      "type": "function"
    },
    {
      "inputs": [],
      "name": "name",
      "outputs": [
        {
          "internalType": "string",
          "name": "",
          "type": "string"
        }
      ],
      "stateMutability": "view",
      "type": "function"
    },
    {
      "inputs": [],
      "name": "requestTokens",
      "outputs": [],
      "stateMutability": "nonpayable",
      "type": "function"
    },
    {
      "inputs": [],
      "name": "symbol",
      "outputs": [
        {
          "internalType": "string",
          "name": "",
          "type": "string"
        }
      ],
      "stateMutability": "view",
      "type": "function"
    },
    {
      "inputs": [],
      "name": "totalSupply",
      "outputs": [
        {
          "internalType": "uint256",
          "name": "",
          "type": "uint256"
        }
      ],
      "stateMutability": "view",
      "type": "function"
    },
    {
      "inputs": [
        {
          "internalType": "address",
          "name": "to",
          "type": "address"
        },
        {
          "internalType": "uint256",
          "name": "amount",
          "type": "uint256"
        }
      ],
      "name": "transfer",
      "outputs": [
        {
          "internalType": "bool",
          "name": "",
          "type": "bool"
        }
      ],
      "stateMutability": "nonpayable",
      "type": "function"
    },
    {
      "inputs": [
        {
          "internalType": "address",
          "name": "from",
          "type": "address"
        },
        {
          "internalType": "address",
          "name": "to",
          "type": "address"
        },
        {
          "internalType": "uint256",
          "name": "amount",
          "type": "uint256"
        }
      ],
      "name": "transferFrom",
      "outputs": [
        {
          "internalType": "bool",
          "name": "",
          "type": "bool"
        }
      ],
      "stateMutability": "nonpayable",
      "type": "function"
    }
  ],
  "bytecode": "0x60806040523480156200001157600080fd5b506040518060400160405280601081526020017f68747470733a2f2f69636f6e2e636f6d000000000000000000000000000000008152506040518060400160405280600e81526020017f4f76657266756e646564205553440000000000000000000000000000000000008152506040518060400160405280600481526020017f4f5553440000000000000000000000000000000000000000000000000000000081525081818160039081620000c7919062000530565b508060049081620000d9919062000530565b5050508260059081620000ed919062000530565b505050506200013433620001066200013a60201b60201c565b60ff16600a6200011791906200079a565b633b9aca00620001289190620007eb565b6200013f60201b60201c565b62000922565b600090565b600073ffffffffffffffffffffffffffffffffffffffff168273ffffffffffffffffffffffffffffffffffffffff1603620001b1576040517f08c379a0000000000000000000000000000000000000000000000000000000008152600401620001a89062000897565b60405180910390fd5b620001c560008383620002ac60201b60201c565b8060026000828254620001d99190620008b9565b92505081905550806000808473ffffffffffffffffffffffffffffffffffffffff1673ffffffffffffffffffffffffffffffffffffffff168152602001908152602001600020600082825401925050819055508173ffffffffffffffffffffffffffffffffffffffff16600073ffffffffffffffffffffffffffffffffffffffff167fddf252ad1be2c89b69c2b068fc378daa952ba7f163c4a11628f55a4df523b3ef836040516200028c919062000905565b60405180910390a3620002a860008383620002b160201b60201c565b5050565b505050565b505050565b600081519050919050565b7f4e487b7100000000000000000000000000000000000000000000000000000000600052604160045260246000fd5b7f4e487b7100000000000000000000000000000000000000000000000000000000600052602260045260246000fd5b600060028204905060018216806200033857607f821691505b6020821081036200034e576200034d620002f0565b5b50919050565b60008190508160005260206000209050919050565b60006020601f8301049050919050565b600082821b905092915050565b600060088302620003b87fffffffffffffffffffffffffffffffffffffffffffffffffffffffffffffffff8262000379565b620003c4868362000379565b95508019841693508086168417925050509392505050565b6000819050919050565b6000819050919050565b6000620004116200040b6200040584620003dc565b620003e6565b620003dc565b9050919050565b6000819050919050565b6200042d83620003f0565b620004456200043c8262000418565b84845462000386565b825550505050565b600090565b6200045c6200044d565b6200046981848462000422565b505050565b5b8181101562000491576200048560008262000452565b6001810190506200046f565b5050565b601f821115620004e057620004aa8162000354565b620004b58462000369565b81016020851015620004c5578190505b620004dd620004d48562000369565b8301826200046e565b50505b505050565b600082821c905092915050565b60006200050560001984600802620004e5565b1980831691505092915050565b6000620005208383620004f2565b9150826002028217905092915050565b6200053b82620002b6565b67ffffffffffffffff811115620005575762000556620002c1565b5b6200056382546200031f565b6200057082828562000495565b600060209050601f831160018114620005a8576000841562000593578287015190505b6200059f858262000512565b8655506200060f565b601f198416620005b88662000354565b60005b82811015620005e257848901518255600182019150602085019450602081019050620005bb565b86831015620006025784890151620005fe601f891682620004f2565b8355505b6001600288020188555050505b505050505050565b7f4e487b7100000000000000000000000000000000000000000000000000000000600052601160045260246000fd5b60008160011c9050919050565b6000808291508390505b6001851115620006a5578086048111156200067d576200067c62000617565b5b60018516156200068d5780820291505b80810290506200069d8562000646565b94506200065d565b94509492505050565b600082620006c0576001905062000793565b81620006d0576000905062000793565b8160018114620006e95760028114620006f4576200072a565b600191505062000793565b60ff84111562000709576200070862000617565b5b8360020a91508482111562000723576200072262000617565b5b5062000793565b5060208310610133831016604e8410600b8410161715620007645782820a9050838111156200075e576200075d62000617565b5b62000793565b62000773848484600162000653565b925090508184048111156200078d576200078c62000617565b5b81810290505b9392505050565b6000620007a782620003dc565b9150620007b483620003dc565b9250620007e37fffffffffffffffffffffffffffffffffffffffffffffffffffffffffffffffff8484620006ae565b905092915050565b6000620007f882620003dc565b91506200080583620003dc565b92508282026200081581620003dc565b915082820484148315176200082f576200082e62000617565b5b5092915050565b600082825260208201905092915050565b7f45524332303a206d696e7420746f20746865207a65726f206164647265737300600082015250565b60006200087f601f8362000836565b91506200088c8262000847565b602082019050919050565b60006020820190508181036000830152620008b28162000870565b9050919050565b6000620008c682620003dc565b9150620008d383620003dc565b9250828201905080821115620008ee57620008ed62000617565b5b92915050565b620008ff81620003dc565b82525050565b60006020820190506200091c6000830184620008f4565b92915050565b6116b980620009326000396000f3fe608060405234801561001057600080fd5b50600436106100cf5760003560e01c8063395093511161008c578063a457c2d711610066578063a457c2d714610216578063a9059cbb14610246578063c557b98514610276578063dd62ed3e14610294576100cf565b8063395093511461019857806370a08231146101c857806395d89b41146101f8576100cf565b806306fdde03146100d4578063095ea7b3146100f257806318160ddd1461012257806323b872dd14610140578063313ce56714610170578063359cf2b71461018e575b600080fd5b6100dc6102c4565b6040516100e99190610d6a565b60405180910390f35b61010c60048036038101906101079190610e25565b610356565b6040516101199190610e80565b60405180910390f35b61012a610379565b6040516101379190610eaa565b60405180910390f35b61015a60048036038101906101559190610ec5565b610383565b6040516101679190610e80565b60405180910390f35b6101786103b2565b6040516101859190610f34565b60405180910390f35b6101966103b7565b005b6101b260048036038101906101ad9190610e25565b6103e7565b6040516101bf9190610e80565b60405180910390f35b6101e260048036038101906101dd9190610f4f565b61041e565b6040516101ef9190610eaa565b60405180910390f35b610200610466565b60405161020d9190610d6a565b60405180910390f35b610230600480360381019061022b9190610e25565b6104f8565b60405161023d9190610e80565b60405180910390f35b610260600480360381019061025b9190610e25565b61056f565b60405161026d9190610e80565b60405180910390f35b61027e610592565b60405161028b9190610d6a565b60405180910390f35b6102ae60048036038101906102a99190610f7c565b610620565b6040516102bb9190610eaa565b60405180910390f35b6060600380546102d390610feb565b80601f01602080910402602001604051908101604052809291908181526020018280546102ff90610feb565b801561034c5780601f106103215761010080835404028352916020019161034c565b820191906000526020600020905b81548152906001019060200180831161032f57829003601f168201915b5050505050905090565b6000806103616106a7565b905061036e8185856106af565b600191505092915050565b6000600254905090565b60008061038e6106a7565b905061039b858285610878565b6103a6858585610904565b60019150509392505050565b600090565b6103e5336103c36103b2565b60ff16600a6103d2919061117e565b620186a06103e091906111c9565b610b7a565b565b6000806103f26106a7565b90506104138185856104048589610620565b61040e919061120b565b6106af565b600191505092915050565b60008060008373ffffffffffffffffffffffffffffffffffffffff1673ffffffffffffffffffffffffffffffffffffffff168152602001908152602001600020549050919050565b60606004805461047590610feb565b80601f01602080910402602001604051908101604052809291908181526020018280546104a190610feb565b80156104ee5780601f106104c3576101008083540402835291602001916104ee565b820191906000526020600020905b8154815290600101906020018083116104d157829003601f168201915b5050505050905090565b6000806105036106a7565b905060006105118286610620565b905083811015610556576040517f08c379a000000000000000000000000000000000000000000000000000000000815260040161054d906112b1565b60405180910390fd5b61056382868684036106af565b60019250505092915050565b60008061057a6106a7565b9050610587818585610904565b600191505092915050565b6005805461059f90610feb565b80601f01602080910402602001604051908101604052809291908181526020018280546105cb90610feb565b80156106185780601f106105ed57610100808354040283529160200191610618565b820191906000526020600020905b8154815290600101906020018083116105fb57829003601f168201915b505050505081565b6000600160008473ffffffffffffffffffffffffffffffffffffffff1673ffffffffffffffffffffffffffffffffffffffff16815260200190815260200160002060008373ffffffffffffffffffffffffffffffffffffffff1673ffffffffffffffffffffffffffffffffffffffff16815260200190815260200160002054905092915050565b600033905090565b600073ffffffffffffffffffffffffffffffffffffffff168373ffffffffffffffffffffffffffffffffffffffff160361071e576040517f08c379a000000000000000000000000000000000000000000000000000000000815260040161071590611343565b60405180910390fd5b600073ffffffffffffffffffffffffffffffffffffffff168273ffffffffffffffffffffffffffffffffffffffff160361078d576040517f08c379a0000000000000000000000000000000000000000000000000000000008152600401610784906113d5565b60405180910390fd5b80600160008573ffffffffffffffffffffffffffffffffffffffff1673ffffffffffffffffffffffffffffffffffffffff16815260200190815260200160002060008473ffffffffffffffffffffffffffffffffffffffff1673ffffffffffffffffffffffffffffffffffffffff168152602001908152602001600020819055508173ffffffffffffffffffffffffffffffffffffffff168373ffffffffffffffffffffffffffffffffffffffff167f8c5be1e5ebec7d5bd14f71427d1e84f3dd0314c0f7b2291e5b200ac8c7c3b9258360405161086b9190610eaa565b60405180910390a3505050565b60006108848484610620565b90507fffffffffffffffffffffffffffffffffffffffffffffffffffffffffffffffff81146108fe57818110156108f0576040517f08c379a00000000000000000000000000000000000000000000000000000000081526004016108e790611441565b60405180910390fd5b6108fd84848484036106af565b5b50505050565b600073ffffffffffffffffffffffffffffffffffffffff168373ffffffffffffffffffffffffffffffffffffffff1603610973576040517f08c379a000000000000000000000000000000000000000000000000000000000815260040161096a906114d3565b60405180910390fd5b600073ffffffffffffffffffffffffffffffffffffffff168273ffffffffffffffffffffffffffffffffffffffff16036109e2576040517f08c379a00000000000000000000000000000000000000000000000000000000081526004016109d990611565565b60405180910390fd5b6109ed838383610cd0565b60008060008573ffffffffffffffffffffffffffffffffffffffff1673ffffffffffffffffffffffffffffffffffffffff16815260200190815260200160002054905081811015610a73576040517f08c379a0000000000000000000000000000000000000000000000000000000008152600401610a6a906115f7565b60405180910390fd5b8181036000808673ffffffffffffffffffffffffffffffffffffffff1673ffffffffffffffffffffffffffffffffffffffff16815260200190815260200160002081905550816000808573ffffffffffffffffffffffffffffffffffffffff1673ffffffffffffffffffffffffffffffffffffffff168152602001908152602001600020600082825401925050819055508273ffffffffffffffffffffffffffffffffffffffff168473ffffffffffffffffffffffffffffffffffffffff167fddf252ad1be2c89b69c2b068fc378daa952ba7f163c4a11628f55a4df523b3ef84604051610b619190610eaa565b60405180910390a3610b74848484610cd5565b50505050565b600073ffffffffffffffffffffffffffffffffffffffff168273ffffffffffffffffffffffffffffffffffffffff1603610be9576040517f08c379a0000000000000000000000000000000000000000000000000000000008152600401610be090611663565b60405180910390fd5b610bf560008383610cd0565b8060026000828254610c07919061120b565b92505081905550806000808473ffffffffffffffffffffffffffffffffffffffff1673ffffffffffffffffffffffffffffffffffffffff168152602001908152602001600020600082825401925050819055508173ffffffffffffffffffffffffffffffffffffffff16600073ffffffffffffffffffffffffffffffffffffffff167fddf252ad1be2c89b69c2b068fc378daa952ba7f163c4a11628f55a4df523b3ef83604051610cb89190610eaa565b60405180910390a3610ccc60008383610cd5565b5050565b505050565b505050565b600081519050919050565b600082825260208201905092915050565b60005b83811015610d14578082015181840152602081019050610cf9565b60008484015250505050565b6000601f19601f8301169050919050565b6000610d3c82610cda565b610d468185610ce5565b9350610d56818560208601610cf6565b610d5f81610d20565b840191505092915050565b60006020820190508181036000830152610d848184610d31565b905092915050565b600080fd5b600073ffffffffffffffffffffffffffffffffffffffff82169050919050565b6000610dbc82610d91565b9050919050565b610dcc81610db1565b8114610dd757600080fd5b50565b600081359050610de981610dc3565b92915050565b6000819050919050565b610e0281610def565b8114610e0d57600080fd5b50565b600081359050610e1f81610df9565b92915050565b60008060408385031215610e3c57610e3b610d8c565b5b6000610e4a85828601610dda565b9250506020610e5b85828601610e10565b9150509250929050565b60008115159050919050565b610e7a81610e65565b82525050565b6000602082019050610e956000830184610e71565b92915050565b610ea481610def565b82525050565b6000602082019050610ebf6000830184610e9b565b92915050565b600080600060608486031215610ede57610edd610d8c565b5b6000610eec86828701610dda565b9350506020610efd86828701610dda565b9250506040610f0e86828701610e10565b9150509250925092565b600060ff82169050919050565b610f2e81610f18565b82525050565b6000602082019050610f496000830184610f25565b92915050565b600060208284031215610f6557610f64610d8c565b5b6000610f7384828501610dda565b91505092915050565b60008060408385031215610f9357610f92610d8c565b5b6000610fa185828601610dda565b9250506020610fb285828601610dda565b9150509250929050565b7f4e487b7100000000000000000000000000000000000000000000000000000000600052602260045260246000fd5b6000600282049050600182168061100357607f821691505b60208210810361101657611015610fbc565b5b50919050565b7f4e487b7100000000000000000000000000000000000000000000000000000000600052601160045260246000fd5b60008160011c9050919050565b6000808291508390505b60018511156110a25780860481111561107e5761107d61101c565b5b600185161561108d5780820291505b808102905061109b8561104b565b9450611062565b94509492505050565b6000826110bb5760019050611177565b816110c95760009050611177565b81600181146110df57600281146110e957611118565b6001915050611177565b60ff8411156110fb576110fa61101c565b5b8360020a9150848211156111125761111161101c565b5b50611177565b5060208310610133831016604e8410600b841016171561114d5782820a9050838111156111485761114761101c565b5b611177565b61115a8484846001611058565b925090508184048111156111715761117061101c565b5b81810290505b9392505050565b600061118982610def565b915061119483610def565b92506111c17fffffffffffffffffffffffffffffffffffffffffffffffffffffffffffffffff84846110ab565b905092915050565b60006111d482610def565b91506111df83610def565b92508282026111ed81610def565b915082820484148315176112045761120361101c565b5b5092915050565b600061121682610def565b915061122183610def565b92508282019050808211156112395761123861101c565b5b92915050565b7f45524332303a2064656372656173656420616c6c6f77616e63652062656c6f7760008201527f207a65726f000000000000000000000000000000000000000000000000000000602082015250565b600061129b602583610ce5565b91506112a68261123f565b604082019050919050565b600060208201905081810360008301526112ca8161128e565b9050919050565b7f45524332303a20617070726f76652066726f6d20746865207a65726f2061646460008201527f7265737300000000000000000000000000000000000000000000000000000000602082015250565b600061132d602483610ce5565b9150611338826112d1565b604082019050919050565b6000602082019050818103600083015261135c81611320565b9050919050565b7f45524332303a20617070726f766520746f20746865207a65726f20616464726560008201527f7373000000000000000000000000000000000000000000000000000000000000602082015250565b60006113bf602283610ce5565b91506113ca82611363565b604082019050919050565b600060208201905081810360008301526113ee816113b2565b9050919050565b7f45524332303a20696e73756666696369656e7420616c6c6f77616e6365000000600082015250565b600061142b601d83610ce5565b9150611436826113f5565b602082019050919050565b6000602082019050818103600083015261145a8161141e565b9050919050565b7f45524332303a207472616e736665722066726f6d20746865207a65726f20616460008201527f6472657373000000000000000000000000000000000000000000000000000000602082015250565b60006114bd602583610ce5565b91506114c882611461565b604082019050919050565b600060208201905081810360008301526114ec816114b0565b9050919050565b7f45524332303a207472616e7366657220746f20746865207a65726f206164647260008201527f6573730000000000000000000000000000000000000000000000000000000000602082015250565b600061154f602383610ce5565b915061155a826114f3565b604082019050919050565b6000602082019050818103600083015261157e81611542565b9050919050565b7f45524332303a207472616e7366657220616d6f756e742065786365656473206260008201527f616c616e63650000000000000000000000000000000000000000000000000000602082015250565b60006115e1602683610ce5565b91506115ec82611585565b604082019050919050565b60006020820190508181036000830152611610816115d4565b9050919050565b7f45524332303a206d696e7420746f20746865207a65726f206164647265737300600082015250565b600061164d601f83610ce5565b915061165882611617565b602082019050919050565b6000602082019050818103600083015261167c81611640565b905091905056fea2646970667358221220ab9d731d207ea0ae5dd95380476be9a3a5bfeafda425bf68c54d3055262b153264736f6c63430008110033",
  "linkReferences": {},
  "deployedLinkReferences": {}
}